:020000040000FA
:060000000A128A11122809
:10000800FE00030EF7000408F8000A08F90083123E
:1000180003137F08FA000A128A11642C0A128A1143
:100028001528FB01FC01FD0183120313B601B7017A
:10003800B801B901BA01BB01BC01BD01BE01BF01D4
:10004800C001C101C201C30183010A128A11442AF5
:1000580027291930F0000030F1004108F600400867
:10006800F50004300310F60CF50CFF3E031D36288E
:1000780075080F390A128A1167210A128A1101308C
:1000880083120313B6070318B70A0030B7076629A7
:100098001930F0000030F10040080F390A128A11B7
:1000A80067210A128A1143283A3099000130B607AD
:1000B8000318B70A0030B70766291930F000003076
:1000C800F1004308F6004208F50004300310F60C6E
:1000D800F50CFF3E031D6A2875080F390A128A11AC
:1000E80067210A128A1143281930F0000030F10004
:1000F80042080F390A128A1167210A128A11432805
:100108001930F0000030F1007C08F6007B08F5009B
:1001180004300310F60CF50CFF3E031D8D287508FE
:100128000F390A128A1167210A128A1143281930D5
:10013800F0000030F1007B080F390A128A1167219C
:100148000A128A1143282C3099000130B607031887
:10015800B70A0030B70766291930F0000030F100FF
:100168003D08F6003C08F50004300310F60CF50CC9
:10017800FF3E031DB92875080F390A128A11672135
:100188000A128A1143281930F0000030F1003C08A7
:100198000F390A128A1167210A128A1143282F304F
:1001A80099000130B6070318B70A0030B707662967
:1001B8001930F0000030F1003B08F6003A08F5006D
:1001C80004300310F60CF50CFF3E031DE5287508F6
:1001D8000F390A128A1167210A128A114328193025
:1001E800F0000030F1003A080F390A128A1167212D
:1001F8000A128A1143281930F0000030F10039083A
:10020800F6003808F50004300310F60CF50CFF3E34
:10021800031D082975080F390A128A1167210A1265
:100228008A1143281930F0000030F10038080F39DE
:100238000A128A1167210A128A1143280A30990082
:10024800B601B7016629831203133708003A031968
:100258002E2966293608003A03192D28013A031970
:100268004C28033A03195828013A03196128073A18
:1002780003197828013A03195828033A03198428DE
:10028800013A03199B280F3A0319A728013A0319C1
:10029800B028033A0319C728013A0319D328073AA3
:1002A8000319DC28013A0319F328033A0319D32860
:1002B800013A0319FF281F3A03191629013A0319AD
:1002C800222966290800F400092A3030FF00700846
:1002D80084008317711C83137F088000432A313000
:1002E800FF00700884008317711C83137F08800047
:1002F800432A3230FF00700884008317711C83136F
:100308007F088000432A3330FF0070088400831779
:10031800711C83137F088000432A3430FF00700863
:1003280084008317711C83137F088000432A3530AB
:10033800FF00700884008317711C83137F088000F6
:10034800432A3630FF00700884008317711C83131A
:100358007F088000432A3730FF0070088400831725
:10036800711C83137F088000432A3830FF0070080F
:1003780084008317711C83137F088000432A393057
:10038800FF00700884008317711C83137F088000A6
:10039800432A4130FF00700884008317711C8313BF
:1003A8007F088000432A4230FF00700884008317CA
:1003B800711C83137F088000432A4330FF007008B4
:1003C80084008317711C83137F088000432A4430FC
:1003D800FF00700884008317711C83137F08800056
:1003E800432A4530FF00700884008317711C83136B
:1003F8007F088000432A4630FF0070088400831776
:10040800711C83137F088000432A7408F200F301EB
:100418007308003A0319112A69297208003A031966
:100428006929013A03197329033A03197D29013A05
:1004380003198729073A03199129013A03199B29B6
:10044800033A0319A529013A0319AF290F3A0319E9
:10045800B929013A0319C329033A0319CD29013AE5
:100468000319D729073A0319E129013A0319EB2996
:10047800033A0319F529013A0319FF2969290800E4
:100488000A128A11B5230A128A110A128A11C6247D
:100498000A128A11D03083120313A0000030A10081
:1004A8000A128A11B3240A128A1100308312031324
:1004B800A000A1000A128A11B3240A128A1100307E
:1004C80083120313A000A1000A128A11B3240A128E
:1004D8008A11003083120313A000A1000A128A11A6
:1004E800B3240A128A11183083120313A0000030B3
:1004F800A1000A128A11B3240A128A110430831245
:100508000313A0000030A1000A128A11B3240A12B2
:100518008A11253083120313A0000030A1000A12AB
:100528008A11B3240A128A11023083120313A0001D
:100538000030A1000A128A11B3240A128A1121304C
:1005480083120313A0000030A1000A128A11B324F9
:100558000A128A110A128A11BD240A128A110A1271
:100568008A11A8240A128A110A128A11C6240A12A8
:100578008A11D03083120313A0000030A1000A12A0
:100588008A11B3240A128A11003083120313A000BF
:10059800A1000A128A11B3240A128A110A128A11B6
:1005A800C6240A128A11D13083120313A000003026
:1005B800A1000A128A11B3240A128A110030831288
:1005C8000313A000A1000A128A1132240A128A1108
:1005D800831203132108FC002008FB00AE2A0A122C
:1005E8008A111228003083120313AC000030AB00CC
:1005F8000030AA000030A9002308220421042004A6
:100608000319072B082B552BAD01AD0A182B013008
:10061800A8000310A00DA10DA20DA30DA80B0D2B72
:100628000130FF007F08AD07A31F1B2B1C2B0B2BD2
:100638000130A8000310A90DAA0DAB0DAC0DA80B35
:100648001E2B23082702031D332B22082602031D15
:10065800332B21082502031D332B20082402031CF9
:10066800362B372B462B2008A4022108031C210F08
:10067800A5022208031C220FA6022308031C230F2D
:10068800A702291401300310A30CA20CA10CA00C82
:10069800FF3E031D472B0130AD02031D542B552B84
:1006A8001C2B2C08A3002B08A2002A08A10029084B
:1006B800A000080083120313A200922B83160313D1
:1006C8000F138F120F12B42B831603130F138F12ED
:1006D8000F16B42B831603130F138F160F12B42B98
:1006E800831603130F138F160F16B42B83160313D9
:1006F8000F178F120F12B42B831603130F178F12B5
:100708000F16B42B831603130F178F160F12B42B63
:10071800831603130F178F160F16B42B2208A00089
:10072800A1012108003A03199A2BB42B2008003A9A
:100738000319622B013A0319682B033A03196E2B2C
:10074800013A0319742B073A03197A2B013A031952
:10075800802B033A0319862B013A03198C2BB42BEF
:1007680008000A128A1187240A128A1106300A120E
:100778008A115E230A128A11D73083160313810067
:1007880083160317880189018312031387018801DF
:100798008316031388018312031386018316031338
:1007A80089018312031389018501831603138501C7
:1007B8008601003083120313B1000130B000863087
:1007C800AF00A030AE000A128A11F7230A128A116C
:1007D8008B170B178B160B11831603130C1683122A
:1007E80003130C1208002830831203139400831695
:1007F800031391011113831203132E08B2002F085B
:10080800B3003008B4003108B50002300310B20D4F
:10081800B30DB40DB50DFF3E031D0A2C3508A3001A
:100828003408A2003308A1003208A0000030A70055
:100838003D30A6000930A5000030A4000A128A1134
:10084800F6220A128A11831203132008FF3E831628
:100858000313930094018715071608000A128A11DA
:100868009B240A128A118316031391150A128A11FE
:100878009B240A128A11831203131308A200A301EE
:100888002208A4002308A5000A128A119B240A1230
:100898008A118312031320032104031D542C552CA1
:1008A800592C8316031391125C2C8316031391168B
:1008B8001116831203132508A1002408A0000800BC
:1008C8000B1D672C682C6F2CEC3081000130FF0069
:1008D8007F08FD070B110C1E722C732C7B2C0A123F
:1008E8008A112C200A128A11831603130C127A0813
:1008F8008312FF0079088A0078088400770E830045
:10090800FE0E7E0E0900831603131813181218150D
:1009180083160317871119308316031399009A0158
:1009280098168312031398171813181608008316BD
:1009380003131419A02CA12C9B2C11081F39031D7B
:10094800A62CA72C9B2C08000B307D02031CAD2C79
:10095800AE2CB22CFD01831603130C1608000A12E4
:100968008A119B240A128A11831203132008930008
:1009780008000A128A119B240A128A11831603138B
:10098800111508000A128A119B240A128A1183166B
:0609980003131114080016
:04400E00D420FF3F7C
:00000001FF
