:020000040000FA
:060000000A128A11122809
:10000800FE00030EF9000408FA000A08FB00831238
:1000180003137F08FC000A128A11F92A0A128A11AE
:100028001528FD018313363084004B300A128A11DB
:1000380036250A128A1183010A128A11522A352991
:1000480005151930F0000030F1004108F6004008AD
:10005800F50004300310F60CF50CFF3E031D2E28A6
:1000680075080F390A128A1175210A128A1101308E
:1000780083120313B6070318B70A0030B7077429A9
:1000880005151930F0000030F10040080F390A1248
:100098008A1175210A128A113B2805153A309900F0
:1000A8000130B6070318B70A0030B70774290515D9
:1000B8001930F0000030F1004308F6004208F5005E
:1000C80004300310F60CF50CFF3E031D6528750877
:1000D8000F390A128A1175210A128A113B2805154F
:1000E8001930F0000030F10042080F390A128A1165
:1000F80075210A128A113B28051552280515193051
:10010800F0000030F1004508F6004408F50004301E
:100118000310F60CF50CFF3E031D8C2875080F39EB
:100128000A128A1175210A128A113B2805151930FD
:10013800F0000030F10044080F390A128A117521C5
:100148000A128A113B2805152C3099000130B60790
:100158000318B70A0030B707742905151930F000DD
:100168000030F1003D08F6003C08F50004300310AB
:10017800F60CF50CFF3E031DBB2875080F390A1253
:100188008A1175210A128A113B2805151930F000C9
:100198000030F1003C080F390A128A1175210A1241
:1001A8008A113B2805152F3099000130B60703182E
:1001B800B70A0030B707742905151930F000003068
:1001C800F1003B08F6003A08F50004300310F60C7D
:1001D800F50CFF3E031DEA2875080F390A128A112B
:1001E80075210A128A113B2805151930F0000030D4
:1001F800F1003A080F390A128A1175210A128A1178
:100208003B280515D72805151930F0000030F100F6
:100218003908F6003808F50004300310F60CF50C20
:10022800FF3E031D112975080F390A128A1175211D
:100238000A128A113B2805151930F0000030F10028
:1002480038080F390A128A1175210A128A113B28B7
:1002580005110A309900B601B701C6010B118B12BE
:100268007429831203133708003A03193C297429A7
:100278003608003A03192428013A03194428033A96
:1002880003195128013A03195B28073A03197328FF
:10029800013A03198028033A03198228013A0319FD
:1002A8009A280F3A0319A728013A0319B128033AE3
:1002B8000319C928013A0319D628073A0319E0286F
:1002C800013A0319F828033A03190529013A0319D1
:1002D80007291F3A03191F29013A03192C297429E0
:1002E8000800F400172A3030FF00700884008317D4
:1002F800711C83137F088000512A3130FF00700879
:1003080084008317711C83137F088000512A3230C0
:10031800FF00700884008317711C83137F08800016
:10032800512A3330FF00700884008317711C83132F
:100338007F088000512A3430FF007008840083173A
:10034800711C83137F088000512A3530FF00700824
:1003580084008317711C83137F088000512A36306C
:10036800FF00700884008317711C83137F088000C6
:10037800512A3730FF00700884008317711C8313DB
:100388007F088000512A3830FF00700884008317E6
:10039800711C83137F088000512A3930FF007008D0
:1003A80084008317711C83137F088000512A413011
:1003B800FF00700884008317711C83137F08800076
:1003C800512A4230FF00700884008317711C831380
:1003D8007F088000512A4330FF007008840083178B
:1003E800711C83137F088000512A4430FF00700875
:1003F80084008317711C83137F088000512A4530BD
:10040800FF00700884008317711C83137F08800025
:10041800512A4630FF00700884008317711C83132B
:100428007F088000512A7408F200F3017308003A2B
:1004380003191F2A77297208003A03197729013A04
:1004480003198129033A03198B29013A03199529BC
:10045800073A03199F29013A0319A929033A0319ED
:10046800B329013A0319BD290F3A0319C729013ADB
:100478000319D129033A0319DB29013A0319E5299C
:10048800073A0319EF29013A0319F929033A03191D
:10049800032A013A03190D2A772908000A128A113A
:1004A80034240A128A110A128A1106250A128A119C
:1004B8000A128A1124250A128A11D03083120313D2
:1004C800A0000030A1000A128A1111250A128A110F
:1004D800003083120313A000A1000A128A1111250B
:1004E8000A128A110A128A112D250A128A11D1308C
:1004F80083120313A0000030A1000A128A111125EB
:100508000A128A11013083120313A0000030A100DF
:100518000A128A11B3240A128A11831203132108BA
:10052800C5002008C4000130A0000030A1000A1254
:100538008A11B3240A128A11831203132108C300F3
:100548002008C2000130A0000030A1000A128A1160
:10055800B3240A128A11831203132108C100200848
:10056800C0000130A0000030A1000A128A11B32493
:100578000A128A11831203132108BF002008BE0043
:100588000130A0000030A1000A128A11B3240A1217
:100598008A11831203132108BD002008BC00013012
:1005A800A0000030A1000A128A11B3240A128A118D
:1005B800831203132108BB002008BA000030A000F2
:1005C800A1000A128A11B3240A128A118312031392
:1005D8002108B9002008B8000A128A111B250A123E
:1005E8008A11572A0A128A1112280B1DFC2AFD2A81
:1005F800042B0B11EC3081000130FF007F08FD0750
:100608000C1E072B082B102B0A128A1123200A1202
:100618008A11831603130C1283128C1E142B152BAC
:100628006A2B8C12302B1A08FF007F08CA00013091
:10063800FF007F08C807462B1A08FF007F08C9007B
:100648001B2B1A08FF007F08C6001B2B1A08FF0087
:100658007F08C700C801462B4808F700F80178084A
:10066800003A0319382B462B7708003A0319172B41
:10067800013A0319202B033A0319252B013A0319D0
:100688002A2B462B0A304706031D4B2B4C2B662B77
:1006980033304606031D512B522B532B8B16353006
:1006A8004A06031D582B592B5B2B05145C2B051090
:1006B80035304906031D612B622B642B85146A2B88
:1006C80085106A2BCA01C901C701C6017C08FF0051
:1006D8007B088A007A088400790E8300FE0E7E0E5D
:1006E8000900003083120313AC000030AB00003067
:1006F800AA000030A90023082204210420040319B9
:10070800862B872BD42BAD01AD0A972B0130A8007F
:100718000310A00DA10DA20DA30DA80B8C2B013069
:10072800FF007F08AD07A31F9A2B9B2B8A2B013054
:10073800A8000310A90DAA0DAB0DAC0DA80B9D2B9D
:1007480023082702031DB22B22082602031DB22B01
:1007580021082502031DB22B20082402031CB52BF7
:10076800B62BC52B2008A4022108031C210FA502C3
:100778002208031C220FA6022308031C230FA7022A
:10078800291401300310A30CA20CA10CA00CFF3EED
:10079800031DC62B0130AD02031DD32BD42B9B2B7D
:1007A8002C08A3002B08A2002A08A1002908A000F1
:1007B800080083120313A200112C831603130F13CE
:1007C8008F120F12332C831603130F138F120F1669
:1007D800332C831603130F138F160F12332C831623
:1007E80003130F138F160F16332C831603130F17CB
:1007F8008F120F12332C831603130F178F120F1635
:10080800332C831603130F178F160F12332C8316EE
:1008180003130F178F160F16332C2208A000A101FF
:100828002108003A0319192C332C2008003A03191F
:10083800E12B013A0319E72B033A0319ED2B013A8F
:100848000319F32B073A0319F92B013A0319FF2B64
:10085800033A0319052C013A03190B2C332C080011
:100868000A128A11E5240A128A1106300A128A111C
:10087800DD230A128A11D7308316031381008316E9
:1008880003178801890183120313870188018316DE
:100898000313880183120313860183160313890146
:1008A80083120313890185018316031385018601C9
:1008B8008B170B178B160B110C16831203130C12C4
:1008C800831603138C16831203138C120030B100A5
:1008D8000130B0008630AF00A030AE000A128A1195
:1008E80078240A128A11080028308312031394000E
:1008F8008316031391011113831203132E08B200F8
:100908002F08B3003008B4003108B50002300310D6
:10091800B20DB30DB40DB50DFF3E031D8B2C35087C
:10092800A3003408A2003308A1003208A000003058
:10093800A7003D30A6000930A5000030A4000A1227
:100948008A1175230A128A11831203132008FF3EA5
:1009580083160313930094018715071608000A12DB
:100968008A11F9240A128A118316031391150A129F
:100978008A11F9240A128A11831203131308A20098
:10098800A3012208A4002308A5000A128A11F92449
:100998000A128A118312031320032104031DD52C84
:1009A800D62CDA2C831603139112DD2C831603132D
:1009B80091161116831203132508A1002408A0001C
:1009C8000800831603131813181218158316031733
:1009D800871119308316031399009A019816831208
:1009E80003139817181318160800831603131419FD
:1009F800FE2CFF2CF92C11081F39031D042D052D81
:100A0800F92C08000B307D02031C0B2D0C2D102D2A
:100A1800FD01831603130C1608000A128A11F92423
:100A28000A128A11831203132008930008000A127D
:100A38008A11F9240A128A11831603131115080062
:100A48000A128A11F9240A128A118316031311143F
:100A580008000A128A11F9240A128A11831603134C
:100A68009114080064008001840A04060319003404
:040A78000406372D0C
:04400E00D420FF3F7C
:00000001FF
