:020000040000FA
:060000000A128A11122809
:10000800FE00030EF9000408FA000A08FB00831238
:1000180003137F08FC000A128A114A2B0A128A115C
:100028001528FD0183133630840049300A128A11DD
:1000380008250A128A1183010A128A113B2A1E29ED
:100048001930F0000030F1004108F6004008F500D2
:1000580004300310F60CF50CFF3E031D2D2875081F
:100068000F390A128A115E210A128A11013083128D
:100078000313B6070318B70A0030B7075D2919300C
:10008800F0000030F10040080F390A128A115E2191
:100098000A128A113A283A3099000130B607031833
:1000A800B70A0030B7075D291930F0000030F100B9
:1000B8004308F6004208F50004300310F60CF50C6E
:1000C800FF3E031D612875080F390A128A115E2147
:1000D8000A128A113A281930F0000030F10042085B
:1000E8000F390A128A115E210A128A113A28193028
:1000F800F0000030F1004508F6004408F50004302F
:100108000310F60CF50CFF3E031D842875080F3903
:100118000A128A115E210A128A113A281930F0004F
:100128000030F10044080F390A128A115E210A12C0
:100138008A113A282C3099000130B6070318B70AFB
:100148000030B7075D291930F0000030F1003D0894
:10015800F6003C08F50004300310F60CF50CFF3EE1
:10016800031DB02875080F390A128A115E210A1278
:100178008A113A281930F0000030F1003C080F3994
:100188000A128A115E210A128A113A282F30990020
:100198000130B6070318B70A0030B7075D291930D0
:1001A800F0000030F1003B08F6003A08F500043092
:1001B8000310F60CF50CFF3E031DDC2875080F39FB
:1001C8000A128A115E210A128A113A281930F0009F
:1001D8000030F1003A080F390A128A115E210A121A
:1001E8008A113A281930F0000030F1003908F60079
:1001F8003808F50004300310F60CF50CFF3E031D1B
:10020800FF2875080F390A128A115E210A128A110D
:100218003A281930F0000030F10038080F390A1276
:100228008A115E210A128A113A280A309900B60109
:10023800B7015D29831203133708003A03192529EA
:100248005D293608003A03192428013A031943287E
:10025800033A03194F28013A03195828073A031992
:100268006F28013A03194F28033A03197B28013AEA
:10027800031992280F3A03199E28013A0319A7284F
:10028800033A0319BE28013A0319CA28073A031981
:10029800D328013A0319EA28033A0319CA28013A6C
:1002A8000319F6281F3A03190D29013A03191929C8
:1002B8005D290800F400002A3030FF00700884002F
:1002C8008317711C83137F0880003A2A3130FF009E
:1002D800700884008317711C83137F0880003A2AF2
:1002E8003230FF00700884008317711C83137F0865
:1002F80080003A2A3330FF00700884008317711C8D
:1003080083137F0880003A2A3430FF007008840085
:100318008317711C83137F0880003A2A3530FF0049
:10032800700884008317711C83137F0880003A2AA1
:100338003630FF00700884008317711C83137F0810
:1003480080003A2A3730FF00700884008317711C38
:1003580083137F0880003A2A3830FF007008840031
:100368008317711C83137F0880003A2A3930FF00F5
:10037800700884008317711C83137F0880003A2A51
:100388004130FF00700884008317711C83137F08B5
:1003980080003A2A4230FF00700884008317711CDD
:1003A80083137F0880003A2A4330FF0070088400D6
:1003B8008317711C83137F0880003A2A4430FF009A
:1003C800700884008317711C83137F0880003A2A01
:1003D8004530FF00700884008317711C83137F0861
:1003E80080003A2A4630FF00700884008317711C89
:1003F80083137F0880003A2A7408F200F301730817
:10040800003A0319082A60297208003A031960297A
:10041800013A03196A29033A03197429013A03199D
:100428007E29073A03198829013A03199229033AC0
:1004380003199C29013A0319A6290F3A0319B0296F
:10044800013A0319BA29033A0319C429013A0319CD
:10045800CE29073A0319D829013A0319E229033AA0
:100468000319EC29013A0319F629602908000A1230
:100478008A1104240A128A110A128A11C9240A123A
:100488008A110A128A11F6240A128A11D0308312AC
:100498000313A0000030A1000A128A11E3240A12F3
:1004A8008A11003083120313A000A1000A128A11D6
:1004B800E3240A128A110A128A11FF240A128A11E5
:1004C800D13083120313A0000030A1000A128A1150
:1004D800E3240A128A11013083120313A0000030AA
:1004E800A1000A128A1183240A128A1183120313A3
:1004F8002108C5002008C4000130A0000030A10078
:100508000A128A1183240A128A11831203132108FA
:10051800C3002008C2000130A0000030A1000A1268
:100528008A1183240A128A11831203132108C10035
:100538002008C0000130A0000030A1000A128A1172
:1005480083240A128A11831203132108BF0020088A
:10055800BE000130A0000030A1000A128A118324D5
:100568000A128A11831203132108BD002008BC0057
:100578000130A0000030A1000A128A1183240A1257
:100588008A11831203132108BB002008BA00003027
:10059800A000A1000A128A1183240A128A11831268
:1005A80003132108B9002008B8000A128A11ED24A3
:1005B8000A128A11402A0A128A111228003083125C
:1005C8000313AC000030AB000030AA000030A900D3
:1005D80023082204210420040319F32AF42A412BB6
:1005E800AD01AD0A042B0130A8000310A00DA10D28
:1005F800A20DA30DA80BF92A0130FF007F08AD0753
:10060800A31F072B082BF72A0130A8000310A90DF8
:10061800AA0DAB0DAC0DA80B0A2B23082702031D4E
:100628001F2B22082602031D1F2B21082502031D4C
:100638001F2B20082402031C222B232B322B2008DB
:10064800A4022108031C210FA5022208031C220F63
:10065800A6022308031C230FA70229140130031044
:10066800A30CA20CA10CA00CFF3E031D332B0130E0
:10067800AD02031D402B412B082B2C08A3002B088F
:10068800A2002A08A1002908A00008000B1D4D2B74
:100698004E2B552BEC3081000130FF007F08C80736
:1006A8000B110C1E582B592B612B0A128A1123206F
:1006B8000A128A11831603130C1283128C1E652BDF
:1006C800662BA22B8C12772B1A08FF007F08FD00DF
:1006D8000130FF007F08C707872B1A08FF007F0833
:1006E800C600C701872B4708F700F8017808003AC9
:1006F80003197F2B872B7708003A0319682B013AD7
:100708000319712B872B0A304606031D8C2B8D2B62
:100718009F2B31307D06031D922B932B962B0514AE
:100728008510A22B32307D06031D9B2B9C2BA22B00
:1007380005108514A22BFD01C601A22B7C08FF0021
:100748007B088A007A088400790E8300FE0E7E0EEC
:10075800090083120313A200E12B831603130F135E
:100768008F120F12032C831603130F138F120F16F9
:10077800032C831603130F138F160F12032C8316E3
:1007880003130F138F160F16032C831603130F175B
:100798008F120F12032C831603130F178F120F16C5
:1007A800032C831603130F178F160F12032C8316AF
:1007B80003130F178F160F16032C2208A000A10190
:1007C8002108003A0319E92B032C2008003A0319E1
:1007D800B12B013A0319B72B033A0319BD2B013A80
:1007E8000319C32B073A0319C92B013A0319CF2B55
:1007F800033A0319D52B013A0319DB2B032C080004
:100808000A128A11B5240A128A1106300A128A11AC
:10081800AD230A128A11D730831603138100831679
:10082800031788018901831203138701880183163E
:1008380003138801831203138601831603138901A6
:100848008312031389018501831603138501860129
:100858008B170B178B160B110C16831203130C1224
:10086800831603138C16831203138C160030B10001
:100878000130B0008630AF00A030AE000A128A11F5
:1008880048240A128A11080028308312031394009E
:100898008316031391011113831203132E08B20058
:1008A8002F08B3003008B4003108B5000230031037
:1008B800B20DB30DB40DB50DFF3E031D5B2C35080D
:1008C800A3003408A2003308A1003208A0000030B9
:1008D800A7003D30A6000930A5000030A4000A1288
:1008E8008A11E2220A128A11831203132008FF3E9A
:1008F80083160313930094018715071608000A123C
:100908008A11D6240A128A118316031391150A1222
:100918008A11D6240A128A11831203131308A2001B
:10092800A3012208A4002308A5000A128A11D624CC
:100938000A128A118312031320032104031DA52C14
:10094800A62CAA2C831603139112AD2C831603131D
:1009580091161116831203132508A1002408A0007C
:100968000800831603131813181218158316031793
:10097800871119308316031399009A019816831268
:10098800031398171813181608000B308312031353
:100998004802031CD02CD12CD52CC8018316031374
:1009A8000C160800831603131419DB2CDC2CD62C28
:1009B80011081F39031DE12CE22CD62C08000A125D
:1009C8008A11D6240A128A1183120313200893006D
:1009D80008000A128A11D6240A128A1183160313F0
:1009E800111508000A128A11D6240A128A118316D0
:1009F8000313111408000A128A11D6240A128A1144
:100A0800831603139114080064008001840A040605
:080A1800031900340406092D46
:04400E00D420FF3F7C
:00000001FF
