:020000040000FA
:060000000A128A11122809
:10000800FE00030EF7000408F8000A08F90083123E
:1000180003137F08FA000A128A11B92C0A128A11EE
:100028001528FB01FC01FD0183120313B601B7017A
:10003800B801B901BA01BB01BC01BD01BE01BF01D4
:10004800C001C101C201C30183010A128A116729D3
:1000580027291930F0000030F1004108F600400867
:10006800F50004300310F60CF50CFF3E031D36288E
:1000780075080F390A128A116E220A128A11013084
:1000880083120313B6070318B70A0030B7076629A7
:100098001930F0000030F10040080F390A128A11B7
:1000A8006E220A128A1143283A3099000130B607A5
:1000B8000318B70A0030B70766291930F000003076
:1000C800F1004308F6004208F50004300310F60C6E
:1000D800F50CFF3E031D6A2875080F390A128A11AC
:1000E8006E220A128A1143281930F0000030F100FC
:1000F80042080F390A128A116E220A128A114328FD
:100108001930F0000030F1007C08F6007B08F5009B
:1001180004300310F60CF50CFF3E031D8D287508FE
:100128000F390A128A116E220A128A1143281930CD
:10013800F0000030F1007B080F390A128A116E2294
:100148000A128A1143282C3099000130B607031887
:10015800B70A0030B70766291930F0000030F100FF
:100168003D08F6003C08F50004300310F60CF50CC9
:10017800FF3E031DB92875080F390A128A116E222D
:100188000A128A1143281930F0000030F1003C08A7
:100198000F390A128A116E220A128A1143282F3047
:1001A80099000130B6070318B70A0030B707662967
:1001B8001930F0000030F1003B08F6003A08F5006D
:1001C80004300310F60CF50CFF3E031DE5287508F6
:1001D8000F390A128A116E220A128A11432819301D
:1001E800F0000030F1003A080F390A128A116E2225
:1001F8000A128A1143281930F0000030F10039083A
:10020800F6003808F50004300310F60CF50CFF3E34
:10021800031D082975080F390A128A116E220A125D
:100228008A1143281930F0000030F10038080F39DE
:100238000A128A116E220A128A1143280A3099007A
:10024800B601B7016629831203133708003A031968
:100258002E2966293608003A03192D28013A031970
:100268004C28033A03195828013A03196128073A18
:1002780003197828013A03195828033A03198428DE
:10028800013A03199B280F3A0319A728013A0319C1
:10029800B028033A0319C728013A0319D328073AA3
:1002A8000319DC28013A0319F328033A0319D32860
:1002B800013A0319FF281F3A03191629013A0319AD
:1002C8002229662908000A128A110A240A128A11A8
:1002D8000A128A111B250A128A11D03083120313BD
:1002E800A0000030A1000A128A1108250A128A11FA
:1002F800003083120313A000A1000A128A110825F6
:100308000A128A11003083120313A000A1000A12F6
:100318008A1108250A128A11003083120313A000DB
:10032800A1000A128A1108250A128A1118308312AC
:100338000313A0000030A1000A128A1108250A122E
:100348008A11043083120313A0000030A1000A129E
:100358008A1108250A128A11253083120313A00076
:100368000030A1000A128A1108250A128A110230E7
:1003780083120313A0000030A1000A128A11082575
:100388000A128A11213083120313A0000030A10041
:100398000A128A1108250A128A110A128A111225CC
:1003A8000A128A110A128A11FD240A128A110A12E3
:1003B8008A111B250A128A11D03083120313A00058
:1003C8000030A1000A128A1108250A128A11003089
:1003D80083120313A000A1000A128A1108250A1229
:1003E8008A110A128A1124250A128A11D13083121D
:1003F8000313A0000030A1000A128A1108250A126E
:100408008A11003083120313A000A1000A128A1176
:1004180087240A128A11831203132108FC0020087A
:10042800FB000030A000A1000A128A1187240A12DA
:100438008A11831203132108C3002008C200003068
:10044800A000A1000A128A1187240A128A118312B5
:1004580003132108C1002008C0000030A000A1003B
:100468000A128A1187240A128A1183120313210897
:10047800BF002008BE000030A000A1000A128A11A7
:1004880087240A128A11831203132108BD00200849
:10049800BC000030A000A1000A128A1187240A12A9
:1004A8008A11831203132108BB002008BA00013007
:1004B800A0000030A1000A128A1187240A128A11AA
:1004C800831203132108B9002008B800D1290A12A1
:1004D8008A111228F400102B3030FF0070088400B5
:1004E8008317711C83137F0880004A2B3130FF006B
:1004F800700884008317711C83137F0880004A2BBF
:100508003230FF00700884008317711C83137F0842
:1005180080004A2B3330FF00700884008317711C59
:1005280083137F0880004A2B3430FF007008840052
:100538008317711C83137F0880004A2B3530FF0016
:10054800700884008317711C83137F0880004A2B6E
:100558003630FF00700884008317711C83137F08EE
:1005680080004A2B3730FF00700884008317711C05
:1005780083137F0880004A2B3830FF0070088400FE
:100588008317711C83137F0880004A2B3930FF00C2
:10059800700884008317711C83137F0880004A2B1E
:1005A8004130FF00700884008317711C83137F0893
:1005B80080004A2B4230FF00700884008317711CAA
:1005C80083137F0880004A2B4330FF0070088400A3
:1005D8008317711C83137F0880004A2B4430FF0067
:1005E800700884008317711C83137F0880004A2BCE
:1005F8004530FF00700884008317711C83137F083F
:1006080080004A2B4630FF00700884008317711C55
:1006180083137F0880004A2B7408F200F3017308E3
:10062800003A0319182B702A7208003A0319702A25
:10063800013A03197A2A033A0319842A013A031959
:100648008E2A073A0319982A013A0319A22A033A6B
:100658000319AC2A013A0319B62A0F3A0319C02A1A
:10066800013A0319CA2A033A0319D42A013A031989
:10067800DE2A073A0319E82A013A0319F22A033A4B
:100688000319FC2A013A0319062B702A08000030C6
:1006980083120313AC000030AB000030AA00003016
:1006A800A900230822042104200403195C2B5D2BD4
:1006B800AA2BAD01AD0A6D2B0130A8000310A00DC7
:1006C800A10DA20DA30DA80B622B0130FF007F081E
:1006D800AD07A31F702B712B602B0130A8000310EE
:1006E800A90DAA0DAB0DAC0DA80B732B230827027F
:1006F800031D882B22082602031D882B21082502AA
:10070800031D882B20082402031C8B2B8C2B9B2B6E
:100718002008A4022108031C210FA5022208031C9B
:10072800220FA6022308031C230FA7022914013055
:100738000310A30CA20CA10CA00CFF3E031D9C2BC4
:100748000130AD02031DA92BAA2B712B2C08A30085
:100758002B08A2002A08A1002908A000080083127B
:100768000313A200E72B831603130F138F120F1224
:10077800092C831603130F138F120F16092C8316D7
:1007880003130F138F160F12092C831603130F135D
:100798008F160F16092C831603130F178F120F12BB
:1007A800092C831603130F178F120F16092C8316A3
:1007B80003130F178F160F12092C831603130F1725
:1007C8008F160F16092C2208A000A1012108003A53
:1007D8000319EF2B092C2008003A0319B72B013A0B
:1007E8000319BD2B033A0319C32B013A0319C92B6B
:1007F800073A0319CF2B013A0319D52B033A0319EA
:10080800DB2B013A0319E12B092C08000A128A1183
:10081800DC240A128A1106300A128A11B3230A123A
:100828008A11D730831603138100831603178801B2
:100838008901831203138701880183160313880132
:10084800831203138601831603138901831203138A
:1008580089018501831603138501860100308312FF
:100868000313B1000130B0008630AF00A030AE00F5
:100878000A128A114C240A128A118B170B178B162D
:100888000B11831603130C16831203130C120800A2
:100898002830831203139400831603139101111354
:1008A800831203132E08B2002F08B3003008B400D7
:1008B8003108B50002300310B20DB30DB40DB50DFB
:1008C800FF3E031D5F2C3508A3003408A20033083F
:1008D800A1003208A0000030A7003D30A600093072
:1008E800A5000030A4000A128A114B230A128A11AB
:1008F800831203132008FF3E831603139300940109
:100908008715071608000A128A11F0240A128A119C
:100918008316031391150A128A11F0240A128A11F8
:10092800831203131308A200A3012208A4002308BA
:10093800A5000A128A11F0240A128A1183120313DD
:1009480020032104031DA92CAA2CAE2C8316031303
:100958009112B12C831603139116111683120313E7
:100968002508A1002408A00008000B1DBC2CBD2CE4
:10097800C42CEC3081000130FF007F08FD070B110B
:100988000C1EC72CC82CD02C0A128A112C200A1233
:100998008A11831603130C127A088312FF00790850
:1009A8008A0078088400770E8300FE0E7E0E090008
:1009B80083160313181318121815831603178711B3
:1009C80019308316031399009A019816831203139A
:1009D8009817181318160800831603131419F52C02
:1009E800F62CF02C11081F39031DFB2CFC2CF02CC5
:1009F80008000B307D02031C022D032D072DFD017D
:100A0800831603130C1608000A128A11F0240A121E
:100A18008A11831203132008930008000A128A110E
:100A2800F0240A128A1183160313111508000A12FA
:100A38008A11F0240A128A1183160313111408006C
:100A48000A128A11F0240A128A11831603139114C8
:020A5800080094
:04400E00D420FF3F7C
:00000001FF
