:020000040000FA
:060000000A128A11F72F1D
:100DCC00831203130618EB2EEC2EFD2E0A128A1139
:100DDC00CC270A128A11F401F40A83120313880136
:100DEC008701F301F201F101F001861106120800EE
:100DFC00831203138618032F042F062FF301F30A13
:100E0C00861C092F0A2F1A2F7303031D0E2F0F2F69
:100E1C001A2FF3010130FF007F08F10771080A1245
:100E2C008A117A270A128A110800831203130619F1
:100E3C00202F212F232FF201F20A061D262F272FF8
:100E4C00372F7203031D2B2F2C2F372FF20101305C
:100E5C00FF007F08F00770080A128A11A3270A12F4
:100E6C008A1108000A128A1155270A128A110A12CD
:100E7C008A11E6260A128A117403031D462F472F86
:100E8C003D2F0A128A11FE260A128A110A128A11A1
:100E9C001B270A128A113D2F0A128A110028831669
:100EAC000317880189018312031387018316031327
:100EBC00870183120313880183160313880183129D
:100ECC000313860183160313061486140615861164
:100EDC000612890183120313890107308316031349
:100EEC009500573081000800F700922F0130FF0069
:100EFC007F08831203138707A22F803083120313FA
:100F0C0087008615F401F101A22F83120313070841
:100F1C00F50075078700A22F7708F500F601760813
:100F2C00003A03199A2F8B2F7508013A03197C2F5D
:100F3C00093A0319832F8B2F0800F700BB2F0130C0
:100F4C00FF007F08831203138807CB2F8030831296
:100F5C00031388000616F401F001CB2F8312031340
:100F6C000808F50075078800CB2F7708F500F60107
:100F7C007608003A0319C32FB42F7508013A0319E8
:100F8C00A52F093A0319AC2FB42F08000130831296
:100F9C00031389008230F600DD30F500F50BD42FF9
:100FAC00F60BD42FD92F0230831203138900823011
:100FBC00F600DD30F500F50BE12FF60BE12FE62FF7
:100FCC0004308312031389008230F600DD30F50003
:100FDC00F50BEE2FF60BEE2FF32F83120313890173
:100FEC000800F001F101F201F301F40183010A128E
:040FFC008A11382FEF
:04400E00D620FF3F7A
:00000001FF
