:020000040000FA
:060000000A128A1110280B
:10000800FE00030EF0000A08F100831203137F08B4
:10001800F2000A128A11AE280A128A111328F7016F
:10002800F80183010A128A11FF28F5004B2883166C
:1000380003130F138F120F126D28831603130F1358
:100048008F120F166D28831603130F138F160F12B6
:100058006D28831603130F138F160F166D2883163A
:1000680003130F178F120F126D28831603130F1720
:100078008F120F166D28831603130F178F160F1282
:100088006D28831603130F178F160F166D28750822
:10009800F300F4017408003A031953286D28730813
:1000A800003A03191B28013A03192128033A0319B6
:1000B8002728013A03192D28073A03193328013A4A
:1000C80003193928033A03193F28013A0319452827
:1000D8006D28080007300A128A1119200A128A119D
:1000E800573083160313810083160317880189018B
:1000F80083120313870183160313870183120313E3
:10010800880183160313880183120313860183165B
:1001180003138901831203138901850183160313CD
:100128000614861487120712871585160330950062
:1001380003309600F301F401F50124300A128A1104
:10014800E9200A128A118B170B178B1583160313D4
:100158008C1508000B1CB128B228D9280B100618DA
:10016800B628B728B928F801F80A061CBC28BD2803
:10017800C7287803031DC128C228C728F801013001
:10018800FF007F0888078618CA28CB28CD28F701E2
:10019800F70A861CD028D128D9287703031DD5282B
:1001A800D628D928F701013088028C1DDC28DD28E3
:1001B800E028080893000C087208FF0071088A00FC
:1001C800700E8300FE0E7E0E0900F60083160313E0
:1001D8008712761DF028F128F528750894008715F0
:1001E800F92873087504940087117608740483123B
:1001F8000313940008000A128A116E200A128A1149
:0802080004290A128A111028D2
:04400E00D420FF3F7C
:00000001FF
