:020000040000FA
:060000000A128A11122809
:10000800FE00030EF7000408F8000A08F90083123E
:1000180003137F08FA000A128A11EE2E0A128A11B7
:100028001528FB01FC01FD0183120313C001C10166
:10003800C201C301C401C501C601C701C8018301CA
:100048000A128A1127280A128A1196250A128A1179
:100058000A128A11B2270A128A1183120313A30102
:1000680001300A128A11C8260A128A1101300A12AE
:100078008A1178260A128A11831203134708860008
:100088000A128A1198270A128A110A128A11E5257A
:100098000A128A110A128A1106220A128A11831276
:1000A8000313A301A30A02300A128A11C8260A12EE
:1000B8008A11831203134308303E0A128A118527D6
:1000C8000A128A110230FF007F0883120313A3006B
:1000D80002300A128A11C8260A128A112E300A1210
:1000E8008A1185270A128A110330FF007F088312BC
:1000F8000313A30002300A128A11C8260A128A11B1
:10010800831203134408303E0A128A1185270A1203
:100118008A110430FF007F0883120313A300023002
:100128000A128A11C8260A128A1183120313450873
:10013800303E0A128A1185270A128A110530FF00FB
:100148007F0883120313A30002300A128A11C826FB
:100158000A128A1120300A128A1185270A128A1176
:100168000630FF007F0883120313A30002300A122F
:100178008A11C8260A128A11831203134008303ED6
:100188000A128A1185270A128A110730FF007F0890
:1001980083120313A30002300A128A11C8260A1216
:1001A8008A112E300A128A1185270A128A110830FC
:1001B800FF007F0883120313A30002300A128A117A
:1001C800C8260A128A11831203134108303E0A1204
:1001D8008A1185270A128A110930FF007F088312C5
:1001E8000313A30002300A128A11C8260A128A11C0
:1001F800831203134208303E0A128A1185270A1215
:100208008A110A30FF007F0883120313A30002300B
:100218000A128A11C8260A128A1120300A128A1173
:1002280085270A128A110B30FF007F0883120313F7
:10023800A30002300A128A11C8260A128A116430F1
:1002480083120313A0000030A1004808BB00BC01C2
:100258003B08A2003C08A3000A128A117C240A1257
:100268008A11831203132008303E0A128A11852747
:100278000A128A110C30FF007F0883120313A300AF
:1002880002300A128A11C8260A128A1164308312AF
:100298000313A0000030A1004808BB00BC013B08C4
:1002A800A2003C08A3000A128A117C240A128A11AF
:1002B800831203132108A9002008A8009C30AA0073
:1002C800FF30AB000A128A11A1260A128A11831282
:1002D800031348082807BE0029080318290ABF0085
:1002E8000A30A0000030A1003F08A3003E08A20089
:1002F8000A128A117C240A128A1183120313200815
:10030800303E0A128A1185270A128A110D30FF0021
:100318007F0883120313A30002300A128A11C82629
:100328000A128A119C3083120313AA00FF30AB0013
:100338004808BB00BC013B08A2003C08A30064308D
:10034800A0000030A1000A128A117C240A128A1126
:10035800831203132108A9002008A8000A128A1191
:10036800A1260A128A118312031348082807BE001F
:1003780029080318290ABF009C30FF007F08AE0037
:100388004808BB00BC013B08A2003C08A30064303D
:10039800A0000030A1000A128A117C240A128A11D6
:1003A8008312031320080A128A1145270A128A1198
:1003B80083120313BD00F630FF007F08AE003F082C
:1003C800A3003E08A2000A30A0000030A1000A12D3
:1003D8008A117C240A128A118312031320080A1234
:1003E8008A1145270A128A11831203133D07480709
:1003F800303E0A128A1185270A128A1140280A12E9
:100408008A11122883120313B901BA013330A000EC
:100418000030A1007C08B500B6013508A8003608F0
:10042800A9006430AA000030AB000A128A11A12684
:100438000A128A11831203132908A3002808A200AC
:100448000A128A117C240A128A11831203132108C2
:10045800B8002008B7001130A0000030A1007B08C8
:10046800B500B6013508A8003608A9000A30AA0068
:100478000030AB000A128A11A1260A128A118312CF
:1004880003132908A3002808A2000A128A117C2451
:100498000A128A11831203132108BA002008B9002E
:1004A8006430AE000030AF003808B1003708B00043
:1004B8000A128A1132260A128A11831203132E088D
:1004C800FF007F08C3000A30AE000030AF004308C9
:1004D800B500B6013508A8003608A9009C30AA0066
:1004E800FF30AB000A128A11A1260A128A11831260
:1004F800031337082807B00038080318380A2907F3
:10050800B1000A128A1132260A128A1183120313C1
:100518002E08FF007F08C4009C30FF007F08AE0053
:1005280043080A128A1145270A128A1183120313F3
:10053800B500F630FF007F08AE0044080A128A11A1
:1005480045270A128A118312031335073707FF005C
:100558007F08C5006430AE000030AF003A08B10033
:100568003908B0000A128A1132260A128A11831237
:1005780003132E08FF007F08C0000A30AE000030C9
:10058800AF004008B500B6013508A8003608A90034
:100598009C30AA00FF30AB000A128A11A1260A1269
:1005A8008A118312031339082807B0003A08031880
:1005B8003A0A2907B1000A128A1132260A128A1148
:1005C800831203132E08FF007F08C1009C30FF0030
:1005D8007F08AE0040080A128A1145270A128A11BC
:1005E80083120313B500F630FF007F08AE00410800
:1005F8000A128A1145270A128A1183120313350732
:100608003907FF007F08C2000800F400AB2B303028
:10061800FF00700884008317711C83137F08800013
:10062800E52B3130FF00700884008317711C831399
:100638007F088000E52B3230FF00700884008317A4
:10064800711C83137F088000E52B3330FF0070088E
:1006580084008317711C83137F088000E52B3430D6
:10066800FF00700884008317711C83137F088000C3
:10067800E52B3530FF00700884008317711C831345
:100688007F088000E52B3630FF0070088400831750
:10069800711C83137F088000E52B3730FF0070083A
:1006A80084008317711C83137F088000E52B383082
:1006B800FF00700884008317711C83137F08800073
:1006C800E52B3930FF00700884008317711C8313F1
:1006D8007F088000E52B4130FF00700884008317F5
:1006E800711C83137F088000E52B4230FF007008DF
:1006F80084008317711C83137F088000E52B433027
:10070800FF00700884008317711C83137F08800022
:10071800E52B4430FF00700884008317711C831395
:100728007F088000E52B4530FF00700884008317A0
:10073800711C83137F088000E52B4630FF0070088A
:1007480084008317711C83137F088000E52B7408CD
:10075800F200F3017308003A0319B32B0B2B72084C
:10076800003A03190B2B013A0319152B033A031905
:100778001F2B013A0319292B073A0319332B013A86
:1007880003193D2B033A0319472B013A0319512B3F
:100798000F3A03195B2B013A0319652B033A031926
:1007A8006F2B013A0319792B073A0319832B013A66
:1007B80003198D2B033A0319972B013A0319A12B1F
:1007C8000B2B0800542C1930F0000030F1007C0885
:1007D800F50004300310F50CFF3E031DEE2B7508E1
:1007E8000F390A128A1109230A128A110130FF00EF
:1007F8007F0883120313C6077B2C1930F0000030E2
:10080800F1007C080F390A128A1109230A128A1189
:10081800FA2B2C309900FA2B1930F0000030F10037
:100828004808F50004300310F50CFF3E031D172C93
:1008380075080F390A128A1109230A128A11FA2B2C
:100848001930F0000030F10048080F390A128A11F7
:1008580009230A128A11FA2B1930F0000030F1002E
:100868007B08F50004300310F50CFF3E031D372C00
:1008780075080F390A128A1109230A128A11FA2BEC
:100888001930F0000030F1007B080F390A128A1184
:1008980009230A128A11FA2B0D309900C6017B2C04
:1008A800831203134608F500F6017608003A031987
:1008B8005E2C7B2C7508003A0319E72B013A0319C3
:1008C800012C033A03190D2C013A0319102C073A8D
:1008D8000319242C013A03190D2C033A0319302C5F
:1008E800013A0319442C0F3A0319502C7B2C0800A9
:1008F80083120313A501A11F822C832C8A2CA00923
:10090800A109A00A0319A10AA501A50AA31F8D2CF4
:100918008E2C972CA209A309A20A0319A30A013055
:10092800FF007F08A506A601A701200821040319D6
:100938009E2C9F2CD62CA401A40AAD2C01300310A8
:10094800A00DA10DFF3E031DA32C0130FF007F0861
:10095800A407A11FB02CB12CA22C01300310A60DA6
:10096800A70DFF3E031DB22C21082302031DBE2C38
:1009780020082202031CC12CC22CC92C2008A20268
:100988002108031CA303A302261401300310A10CA1
:10099800A00CFF3E031DCA2C0130A402031DD52C58
:1009A800D62CB12C25080319DA2CDB2CE02CA6094F
:1009B800A709A60A0319A70A2708A1002608A00064
:1009C8000800D53083120313A300EA2CEB2CA30BE9
:1009D800E92CEE2CEF2CF02C00300A128A11B927E2
:1009E8000A128A11033083120313A4009730A3005C
:1009F800A30BFC2CA40BFC2C30300A128A112C27D8
:100A08000A128A11A53083120313A300A30B0A2D1F
:100A18000D2D30300A128A112C270A128A1104303F
:100A280083120313A300A30B172D000030300A1202
:100A38008A112C270A128A1138300A128A112C2797
:100A48000A128A1110300A128A112C270A128A11E6
:100A580001300A128A112C270A128A1106300A124A
:100A68008A112C270A128A110C300A128A112C2793
:100A78000A128A11080083120313A200732D831629
:100A880003130F138F120F12952D831603130F13D1
:100A98008F120F16952D831603130F138F160F122F
:100AA800952D831603130F138F160F16952D831686
:100AB80003130F178F120F12952D831603130F1799
:100AC8008F120F16952D831603130F178F160F12FB
:100AD800952D831603130F178F160F16952D2208C1
:100AE800A000A1012108003A03197B2D952D2008AB
:100AF800003A0319432D013A0319492D033A031902
:100B08004F2D013A0319552D073A03195B2D013A68
:100B18000319612D033A0319672D013A03196D2D45
:100B2800952D08000A128A1171270A128A110630B7
:100B38000A128A113F250A128A11D7308316031325
:100B48008100831603178801890183120313870123
:100B58008801831603138801831203138601831601
:100B68000313890183120313890185018316031373
:100B780085018601831203130714871407150A12C7
:100B88008A11E5240A128A1183160313071687119E
:100B980007108710071183120313A001A101A201F6
:100BA80020300A128A110E270A128A118B170B1786
:100BB8008B160B11831603130C16831203130C12D6
:100BC800080033307D02031CEA2DEB2D312EFD0188
:100BD800831203130715871407141E2E0710930199
:100BE8000A128A11A2270A128A11FF007F08FC0044
:100BF8000130FF007F0883120313C707312E8710C7
:100C080093010A128A11A2270A128A11FF007F088B
:100C180083120313C800FC2D071193010A128A11CD
:100C2800A2270A128A11FF007F08FB008312031310
:100C3800C701312E4708A000A1012108003A031975
:100C4800262E312E2008003A0319F22D013A0319F5
:100C5800032E033A0319102E312E080083120313B2
:100C6800B201B3012E082F0403193B2E3C2E732E1C
:100C7800B401B40A4A2E01300310AE0DAF0DFF3E89
:100C8800031D402E0130FF007F08B407AF1F4D2E13
:100C98004E2E3F2E01300310B20DB30DFF3E031D43
:100CA8004F2E2F083102031D5B2E2E083002031C25
:100CB8005E2E5F2E662E2E08B0022F08031CB1038D
:100CC800B102321401300310AF0CAE0CFF3E031D0D
:100CD800672E0130B402031D722E732E4E2E330878
:100CE800AF003208AE00080083120313A400A2016B
:100CF800A301932E2208240784000A128A115C2774
:100D08000A128A110A128A1185270A128A110130D9
:100D180083120313A2070318A30A0030A3072208AB
:100D2800240784000A128A115C270A128A11003AE1
:100D3800031D9F2EA02E7E2E080083120313AC01E4
:100D4800AD01281CA82EA92EAF2E2A08AC0703181F
:100D5800AD0A2B08AD0701300310AA0DAB0DFF3EFD
:100D6800031DB02E01300310A90CA80CFF3E031D73
:100D7800B72E28082904031DC22EC32EA52E2D0820
:100D8800A9002C08A800080083120313A400240358
:100D9800031DCF2ED02EDC2E23087F3EFF007F08B8
:100DA800A50025080A128A112C270A128A11ED2E8D
:100DB80002302406031DE12EE22EED2E2308BF3E4D
:100DC800FF007F08A50025080A128A112C270A129D
:100DD8008A1108000B15EC3081000130FF007F08F4
:100DE800FD070B110C1EF92EFA2E022F0A128A117A
:100DF800E6230A128A11831603130C127A08831247
:100E0800FF0079088A0078088400770E8300FE0EB8
:100E18007E0E090083120313A3008316031387129F
:100E280083120313231D192F1A2F202F220883162C
:100E3800031394008715262F200822048316031312
:100E480094008711831203132308210494000800D7
:100E580083120313A200091022080A128A11B92763
:100E68000A128A11831203130915C7308312031358
:100E7800A1003E2FA10B3D2F412F8312031309110F
:100E8800080083120313B000AF01301C4C2F4D2F04
:100E9800512F2E08FF007F08AF070310AE0D031077
:100EA800B00C3008031D592F5A2F492F2F0808005E
:100EB80007308A000408840A8207003450344F340B
:100EC8005434313420344C344D34333435342034B4
:100ED80043344F344E3454340034831603131813F8
:100EE8001812181583160317871119308316031360
:100EF80099009A0198168312031398171813181655
:100F0800080083120313A100091421080A128A1188
:100F1800B9270A128A11831203130915932F942FE4
:100F280083120313091108000A307D06031D9D2F43
:100F38009E2FA12F831603130C1608000A128A117C
:100F4800AB270A128A1183120313130808008316A9
:100F58000313141CB02FB12FAB2F080001300A1255
:100F68008A112C270A128A11080083120313A00081
:060F7800200885000800BE
:04400E00D420FF3F7C
:00000001FF
