:020000040000FA
:060000000A128A11122809
:10000800FE00030E83120313A7000408A8000A08C1
:10001800A9007F08AA000A168A11062E0A128A1158
:10002800152883120313E101E201E301E4018316B9
:100038000313BB01BC01BD01BE01BF01C001C10169
:10004800C201C301C401C50183010A128A155E2DCC
:10005800831203133C088039FF007F08C6003C0860
:10006800C1004107FF007F08CC00BB1F3C283D288A
:100078003E284C144C0803194228432852284C0A9D
:10008800031D4728482850280030BC000030BB001A
:100098000030BA000030B900BB175A280030BC0045
:1000A8000030BB000030BA000030B9004008803989
:1000B800FF007F08C6064008C1004107FF007F080F
:1000C800CB00BF1F682869286A284B144B080319FE
:1000D8006E286F287E284B0A031D732874287C28F5
:1000E8000030C0000030BF000030BE000030BD004E
:1000F800BF1786280030C0000030BF000030BE00A7
:100108000030BD004B0803198A288B2890284C081A
:10011800031D8F28902899280030BC000030BB00B0
:100128000030BA000030B9008C2B3908FF007F0876
:10013800AB003F080A128A1519200A128A11831285
:1001480003132C08D2002B08D1005108C100C201AA
:10015800C301C4014408CA004308C9004208C800D2
:100168004108C7005208C100C201C301C4014408C4
:10017800D0004308CF004208CE004108CD003A081D
:10018800FF007F08AB003E080A128A1519200A12E0
:100198008A11831203132C08D2002B08D1005108AE
:1001A800C100C201C301C4014108C70742080311C5
:1001B8000318013E0319E128C8074308031103186F
:1001C800013E0319E828C907440803110318013E32
:1001D8000319EF28CA075208C100C201C301C401AC
:1001E8004108CD07420803110318013E0319FD28F1
:1001F800CE07430803110318013E03190429CF074A
:10020800440803110318013E03190B29D0073B08C2
:10021800FF007F08AB003D080A128A1519200A1250
:100228008A11831203132C08D2002B08D10051081D
:10023800C100C201C301C4014108C7074208031134
:100248000318013E03192929C80743080311031895
:10025800013E03193029C907440803110318013E58
:1002680003193729CA075208C100C201C301C401D2
:100278004108CD07420803110318013E0319452917
:10028800CE07430803110318013E03194C29CF0771
:10029800440803110318013E03195329D0070830F5
:1002A800C1000310C70DC80DC90DCA0DC10B5529D2
:1002B8003A08FF007F08AB003D080A128A1519208A
:1002C8000A128A11831203132C08D2002B08D100BA
:1002D8005108C1005208C200C301C4014108C70740
:1002E800420803110318013E03197B29C807430874
:1002F80003110318013E03198229C9074408031191
:100308000318013E03198929CA073908FF007F0825
:10031800AB003E080A128A1519200A128A118312A4
:1003280003132C08D2002B08D1005108C100520831
:10033800C200C301C4014108C707420803110318DA
:10034800013E0319A829C807430803110318013EF1
:100358000319AF29C907440803110318013E0319FB
:10036800B629CA070830C1000310C70DC80DC90D4A
:10037800CA0DC10BB8293908FF007F08AB003D083A
:100388000A128A1519200A128A11831203132C08DB
:10039800D2002B08D1005108C1005208C200C30185
:1003A800C4014108C707420803110318013E031995
:1003B800DE29C807430803110318013E0319E5297C
:1003C800C907440803110318013E0319EC29CA0799
:1003D8003A08FF007F08AB003F080A128A15192067
:1003E8000A128A11831203132C08D2002B08D10099
:1003F8005108C1005208C200C301C4014108CD0719
:10040800420803110318013E03190B2ACE074308BB
:1004180003110318013E0319122ACF0744080311D8
:100428000318013E0319192AD0073B08FF007F086B
:10043800AB003E080A128A1519200A128A11831283
:1004480003132C08D2002B08D1005108C100520810
:10045800C200C301C4014108CD07420803110318B3
:10046800013E0319382ACE07430803110318013E39
:1004780003193F2ACF07440803110318013E031943
:10048800462AD0073B08FF007F08AB003F080A1246
:100498008A1519200A128A11831203132C08D20014
:1004A8002B08D1005108C1005208C200C301C40181
:1004B80008300310C10DC20DC30DC40DFF3E031D4E
:1004C8005D2A4108CD07420803110318013E0319AC
:1004D8006E2ACE07430803110318013E0319752A33
:1004E800CF07440803110318013E03197C2AD007DB
:1004F8004708C1004808C2004908C3004A08C400A8
:1005080018300310C40CC30CC20CC10CFF3E031DF1
:10051800852A4108CD07420803110318013E031933
:10052800962ACE07430803110318013E03199D2A92
:10053800CF07440803110318013E0319A42AD00762
:100548000830C1000310C70DC80DC90DCA0DC10B75
:10055800A62A4C084B07C100C201C20D4108823EC1
:10056800D10042080318013EFF3ED200D82A0130CC
:10057800C1000310CD0DCE0DCF0DD00DC10BBD2A7E
:10058800CA1FC72AC82AC92A4D140130C10003103E
:10059800C70DC80DC90DCA0DC10BCB2AFF30D10735
:1005A8000318D20AFF30D207CF1FDB2ADC2ABB2A66
:1005B800CB01CA1FE02AE12AFD2AFF304705C10006
:1005C800FF304805C200FF304905C3007F304A05A7
:1005D800C40044084304420441040319F42AF52AD8
:1005E800F82ACB01CB0AFD2A4D1CFB2AFC2AFD2A3E
:1005F800F52A4B080319012B022B332B0130CD07A9
:10060800003003180130CE07003003180130CF073F
:10061800003003180130D007501C132B142B332B38
:100628004D08C1004E08C2004F08C3005008C4005E
:100638000130C500440DC40CC30CC20CC10CC50B61
:100648001E2B4408D0004308CF004208CE004108C2
:10065800CD000130D1070318D20A0030D207520862
:10066800803AFF0080307F02031D3C2BFF3051028F
:10067800031C3F2B402B4B2B7F3083120313D000DE
:100688008030CF000030CE000030CD00802B8312A8
:1006980003135208803AFF0080307F02031D562B57
:1006A800013051020318592B5A2B662B0030831244
:1006B8000313D0000030CF000030CE000030CD0052
:1006C800C601802B831203135108FF007F08CC005A
:1006D800FF30CD05FF30CE057F30CF050030D00587
:1006E8004C1C772B782B792BCF174C08C1000310A3
:1006F800410CFF007F08D0004608FF007F08D004A7
:100708005008BC004F08BB004E08BA004D08B9009D
:1007180008008312031356088039FF007F08DB00A6
:10072800560883160313A0002007FF007F088312D2
:100738000313DD00D51FA12BA22BA32B5D145D088D
:100748000319A72BA82BB82B5D0A031DAC2BAD2BC7
:10075800B52B0030D6000030D5000030D400003072
:10076800D300D517D601C02B0030D6000030D500F5
:100778000030D4000030D3005A088039FF007F08C9
:10078800DC005C085B060319CA2BCB2BCC2B5B1750
:100798005A0883160313A0002007FF007F0883125E
:1007A8000313DC00D91FD92BDA2BDB2B5C145C0874
:1007B8000319DF2BE02BF02B5C0A031DE42BE52B40
:1007C800ED2B0030DA000030D9000030D8000030BE
:1007D800D700D917DA01F82B0030DA000030D90039
:1007E8000030D8000030D7005D085C020318FD2BEC
:1007F800FE2B422C5B1F012C022C062C8030FF00A4
:100808007F08DB065D08FF007F08DE005C08FF004C
:100818007F08DD005E08FF007F08DC005308FF004A
:100828007F08DE005708FF007F08D3005E08FF003E
:100838007F08D7005408FF007F08DE005808FF0033
:100848007F08D4005E08FF007F08D8005508FF0025
:100858007F08DE005908FF007F08D5005E08FF000A
:100868007F08D9005608FF007F08DE005A08FF00FD
:100878007F08D6005E08FF007F08DA00DE015C080A
:1008880083160313A000A1012108A30083120313F8
:100898005D08831603132002A200031CA303230888
:1008A800803AFF0080307F02031D5C2C1A30220240
:1008B800031C5F2C602CA92C8312031356085504C3
:1008C80054045304031D692C6B2C01306C2C00302C
:1008D800FF007F08DE000030D6000030D500003071
:1008E800D4000030D3005C08FF007F08DD00B12C85
:1008F8005E1C7F2C802C8D2C5E0883160313A000B1
:100908000310200C0138FF007F0883120313DE0058
:100918008F2C0310DE0C531C922C932C942CDE1776
:10092800013083160313A00083120313560DD60C4F
:10093800D50CD40CD30C83160313A00B982C0130C0
:10094800FF007F0883120313DD07831203135C087B
:100958005D02031CB02CB12C7C2C5B1BB42CB52C79
:100968000C2D5D08031DB92CBA2CC32C0030D60001
:100978000030D5000030D4000030D300962E570840
:10098800D307580803110318013E0319CC2CD407C8
:10099800590803110318013E0319D32CD5075A0827
:1009A80003110318013E0319DA2CD607561CDD2C57
:1009B800DE2CFC2D5E1CE12CE22CEF2C5E0883164D
:1009C8000313A0000310200C0138FF007F088312D6
:1009D8000313DE00F12C0310DE0C531CF42CF52C51
:1009E800F62CDE17013083160313A00083120313BD
:1009F800560DD60CD50CD40CD30C83160313A00BB0
:100A0800FA2C0130FF007F0883120313DD07FC2D49
:100A18005608803AFF005A08803A7F02031D1E2DAF
:100A280059085502031D1E2D58085402031D1E2D7A
:100A3800570853020318212D222DAE2DFF3083169F
:100A48000313A000FF30A100FF30A200FF30A30075
:100A580083120313570883160313A4008312031386
:100A6800580883160313A500831203135908831625
:100A78000313A600831203135A0883160313A7004F
:100A880083120313530883160313A4028312031358
:100A98005408031C540F512D542D83160313A5021B
:100AA800831203135508031C550F5B2D5E2D831607
:100AB8000313A602831203135608031C560F652D51
:100AC800682D83160313A7028312031383160313D7
:100AD8002408A00725080318250F732D742DA107D6
:100AE80026080318260F792D7A2DA2072708031840
:100AF800270AA307230883120313D60083160313B8
:100B0800220883120313D5008316031321088312C6
:100B18000313D40083160313200883120313D3008E
:100B28008030FF007F08DB06DE09DE0A5E08031D51
:100B38009E2D9F2DBC2D0130D307003003180130A6
:100B4800D407003003180130D507003003180130EE
:100B5800D607BC2D5708D3025808031C580FD402D7
:100B68005908031C590FD5025A08031C5A0FD602FC
:100B78005608550454045304031DC32DC42DF82DE1
:100B88005E08031DC82DC92DF82D0030D600003091
:100B9800D5000030D4000030D300962E01308316E3
:100BA8000313A000031083120313D30DD40DD50D26
:100BB800D60D83160313A00BD62D83120313DE1F45
:100BC800E62DE72DE82D53145E1CEB2DEC2DEF2DB3
:100BD8000314DE0DF12D0310DE0D5D080319F52D4C
:100BE800F62DF82D0130DD02D51FFB2DFC2DD22D61
:100BF800DC01DE1F002E012E0F2E5E087F3903193F
:100C0800062E072E0A2EDC01DC0A0F2E531C0D2E91
:100C18000E2E0F2E072E5C080319132E142E642E89
:100C28000130D307003003180130D407003003180F
:100C38000130D507003003180130D607561C252E81
:100C4800262E642E530883160313A0008312031361
:100C5800540883160313A10083120313550883163F
:100C68000313A20083120313560883160313A30069
:100C78000130A400230DA30CA20CA10CA00CA40B02
:100C88003E2E230883120313D6008316031322086B
:100C980083120313D5008316031321088312031349
:100CA800D40083160313200883120313D3005D0AAC
:100CB80003195F2E602E642E0130FF007F08DD07C8
:100CC8005D0A0319682E692E6E2E5D08031D6D2EB0
:100CD8006E2E7C2E0030D6000030D5000030D400B7
:100CE8000030D3005D08031D7A2E7B2E7C2EDB019D
:100CF8005D1C7F2E802E822ED517862E7F30FF001A
:100D08007F08D5055D0883160313A0000310200C87
:100D1800FF007F0883120313D600DB1F942E952E45
:100D2800962ED6170800A92F831603133F08303EC6
:100D38008312031399000130FF007F08E107DF2FBA
:100D48002E3099009F2E831603134008303E8312DD
:100D5800031399009F2E831603134108303E831214
:100D6800031399009F2E2C3099009F2E0130FF000D
:100D78007F08E10745308316031342020318C52E86
:100D8800C62ECB2E2D30831203139900DF2F20306F
:100D9800831203139900DF2F831603133C08303E98
:100DA8008312031399009F2E831603133D08303EC8
:100DB8008312031399009F2E831603133E08303EB7
:100DC8008312031399009F2E6430F0000030F10065
:100DD80083160313430883120313A000A1012008FC
:100DE800F2002108F3000A128A159C200A128A11BF
:100DF8007008303E8312031399009F2E6430F00070
:100E08000030F10083160313430883120313A00074
:100E1800A1012008F2002108F3000A128A159C207B
:100E28000A128A117108F9007008F8009C30FA005B
:100E3800FF30FB000A168A1129260A128A11831626
:100E480003134308780783120313A50079080318CE
:100E5800790AA6000A30F0000030F1002608F300F5
:100E68002508F2000A128A159C200A128A117008B5
:100E7800303E8312031399009F2E6430F000003037
:100E8800F10083160313430883120313A000A10182
:100E98002008F2002108F3000A128A159C200A1281
:100EA8008A117108F9007008F8009C30FA00FF30C8
:100EB800FB000A168A1129260A128A1183160313BF
:100EC8004308780783120313A50079080318790AE1
:100ED800A6000A30F0000030F1002608F3002508CB
:100EE800F2000A128A159C200A128A1170088312CD
:100EF8000313A0007108A1006430F0000030F10075
:100F080083160313430883120313A200A3012208C4
:100F1800F2002308F3000A128A159C200A128A118B
:100F28007008FF3A013E83120313A4002008A402AC
:100F3800831603134308831203132407303E9900D2
:100F48009F2E0D309900E101DF2F831203136108F2
:100F5800A000A1012108003A0319B32FDF2F2008B0
:100F6800003A0319982E013A0319A42E033A0319DB
:100F7800A72E013A0319AF2E073A0319B72E013AE3
:100F88000319BA2E033A0319D02E013A0319D82EA1
:100F98000F3A0319E02E013A0319B72E033A031941
:100FA800E82E013A0319022F073A0319412F013A93
:100FB8000319A52FDF2F080083120313AE00831631
:100FC80003138712831203132E1DEB2FEC2FF22F1E
:100FD8002D088316031394008715F82F2B082D046A
:100FE8008316031394008711831203132E082C040D
:040FF8009400080059
:1010000083120313AD0009102D080A168A119F25BB
:101010000A128A15831203130915C73083120313AA
:10102000AC001228AC0B11281528831203130911E8
:10103000080083120313B300AF01B0012B08AD0009
:10104000AE012D08B1002E08B200331C2828292833
:101050002F283108AF070318B00A3208B007013053
:101060000310B10DB20DFF3E031D30280310B30C69
:101070003308031D3C283D2825283008AC002F08E4
:10108000AB000800D53083120313AE004728482870
:10109000AE0B46284B284C284D2800300A168A11E2
:1010A0009F250A128A15033083120313AF0097306D
:1010B000AE00AE0B5928AF0B592830300A128A15F2
:1010C00000200A128A15A53083120313AE00AE0B5E
:1010D00067286A2830300A128A1500200A128A15F9
:1010E000043083120313AE00AE0B742800003030BE
:1010F0000A128A1500200A128A1538300A128A1537
:1011000000200A128A1510300A128A1500200A12CD
:101110008A1501300A128A1500200A128A15063033
:101120000A128A1500200A128A150C300A128A1532
:1011300000200A128A150800F501F11FA028A12835
:10114000A828F009F109F00A0319F10AF501F50AD6
:10115000F31FAB28AC28B528F209F309F20A0319EA
:10116000F30A0130FF007F08F506F601F701700869
:1011700071040319BC28BD28F428F401F40ACB2813
:1011800001300310F00DF10DFF3E031DC1280130A9
:10119000FF007F08F407F11FCE28CF28C0280130B8
:1011A0000310F60DF70DFF3E031DD02871087302E2
:1011B000031DDC2870087202031CDF28E028E728E2
:1011C0007008F2027108031CF303F3027614013075
:1011D0000310F10CF00CFF3E031DE8280130F4026F
:1011E000031DF328F428CF2875080319F828F928D7
:1011F000FE28F609F709F60A0319F70A7708F1003D
:101200007608F000080083120313B001AC1F09290F
:101210000A291129AB09AC09AB0A0319AC0AB001C0
:10122000B00AAE1F142915291E29AD09AE09AD0A51
:101230000319AE0A0130FF007F08B006B101B20108
:101240002B082C040319252926295D29AF01AF0A93
:10125000342901300310AB0DAC0DFF3E031D2A29CC
:101260000130FF007F08AF07AC1F37293829292933
:1012700001300310B10DB20DFF3E031D39292C08BA
:101280002E02031D45292B082D02031C482949293C
:1012900050292B08AD022C08031CAE03AE023114FA
:1012A00001300310AC0CAB0CFF3E031D5129013083
:1012B000AF02031D5C295D29382930080319612913
:1012C00062296729B109B209B10A0319B20A3208C1
:1012D000AC003108AB0008000310831603132A0D7D
:1012E0002B0DFF007F0883120313E0006008031D2D
:1012F0007A297B298629003083160313AB0000303E
:10130000AA000030A9000030A800FD2983160313AD
:101310002808AC002908AD002A08AE002B08AF0051
:101320001F300310AF0CAE0CAD0CAC0CFF3E031D18
:1013300091292C08FF007F0883120313DF00831616
:101340000313AA17FF30A805FF30A905FF30AA052F
:101350000030AB05963083120313E002E01FB12981
:10136000B229D0296008803A973E0318B829B929D4
:10137000BA297B290130031083160313AB0CAA0C86
:10138000A90CA80CFF3E031DBB290130FF007F08FC
:1013900083120313E007031DCE29CF29BA29EB29B5
:1013A00020306002031CD529D629E6297B2901308B
:1013B00083160313AC000310A80DA90DAA0DAB0DE5
:1013C000AC0BDB29013083120313E0026008031D1C
:1013D000EA29EB29D7295F080319EF29F029FD290C
:1013E00083160313A809A909AA09AB09A80A0319B6
:1013F000A90A0319AA0A0319AB0A08003330831299
:101400000313AB000030AC006308C000C10140080A
:10141000B3004108B4006430B5000030B6000A16CD
:101420008A1174260A128A15831203133408AE0037
:101430003308AD000A128A1503210A128A15831295
:1014400003132C08C3002B08C2006430B90000301D
:10145000BA004308BC004208BB000A168A11C42621
:101460000A128A15831203133908FF007F088316B6
:101470000313BF000A3083120313B9000030BA000F
:10148000831603133F0883120313C000C1014008F1
:10149000B3004108B4009C30B500FF30B6000A1616
:1014A0008A1174260A128A1583120313420833071D
:1014B000BB0043080318430A3407BC000A168A110C
:1014C000C4260A128A15831203133908FF007F0805
:1014D00083160313C0009C30FF007F0883120313A0
:1014E000B900831603133F080A168A11EF250A1262
:1014F0008A1583120313C000F630FF007F08B9007D
:101500008316031340080A168A11EF250A128A155A
:101510008312031340074207FF007F08831603135B
:10152000C100080083120313B30033080319992A7A
:101530009A2AAE2AAE1F9D2A9E2AAE2A2B09B500F2
:101540002C09B6002D09B7002E09B800B50A0319F9
:10155000B60A0319B70A0319B80AB62A2E08B80042
:101560002D08B7002C08B6002B08B5002E082D0456
:101570002C042B04031DBD2ABE2AC72A0030AE004E
:101580000030AD000030AC000030AB004D2B963089
:10159000FF007F08B400D92A0130FF007F08B4079C
:1015A00001300310B80CB70CB60CB50CFF3E031D90
:1015B000D12AFE303805031DDE2ADF2ACC2AFB2A79
:1015C0000130FF007F08B4070130B5070030031871
:1015D0000130B607003003180130B7070030031898
:1015E0000130B80701300310B80CB70CB60CB50CBD
:1015F000FF3E031DF32AFF303805031D002B012B8E
:10160000E02A0D2B0130B4020130AF000310B50DFC
:10161000B60DB70DB80DAF0B062BB71B102B112B4A
:10162000172B023034020318162B172B022B3418F9
:101630001A2B1B2B232BFF30B505FF30B6057F304F
:10164000B705FF30B8050310B40C3408AF00B00183
:10165000B101B20118300310AF0DB00DB10DB20DD4
:10166000FF3E031D2B2B2F08B5043008B6043108AC
:10167000B7043208B804330803193F2B402B452B1D
:10168000AE1F432B442B452BB8173808AE00370844
:10169000AD003608AC003508AB0008008316031314
:1016A0004208B000B1013008C4003108C50045301F
:1016B000420203185C2B5D2B7A2C4408831203131F
:1016C000AB0083160313450883120313AC00AD016E
:1016D000AE0100300A128A1592220A128A1583126C
:1016E00003132E08C0002D08BF002C08BE002B08D5
:1016F000BD003F30BC004E30BB009730BA008D308B
:10170000B9000A128A112C200A128A1583120313B7
:101710003C08DA003B08D9003A08D8003908D7005D
:10172000C230D6005F30D5000030D4000030D30086
:101730000A128A118D230A128A158312031356087E
:1017400083160313B500831203135508831603137E
:10175000B40083120313540883160313B3008312D7
:101760000313530883160313B200350883120313BF
:10177000C00083160313340883120313BF008316BB
:101780000313330883120313BE00831603133208B6
:1017900083120313BD00BF30BC008030BB0000309B
:1017A000BA000030B9000A128A112C200A128A15D8
:1017B000831203133C0883160313AB008312031335
:1017C0003B0883160313AA00831203133A088316F7
:1017D0000313A90083120313390883160313A80007
:1017E0000A128A156C210A128A1583160313280817
:1017F000FF007F08BB00643083120313AB0000308E
:10180000AC00831603133B08B000B101300883120B
:101810000313AD0083160313310883120313AE00C4
:101820000A128A1503210A128A15831203132B0840
:10183000FF007F0883160313BC000A3083120313D2
:10184000AB000030AC00831603133C08B000B101BC
:10185000300883120313B300831603133108831275
:101860000313B4009C30B500FF30B6000A168A118D
:1018700074260A128A15831603133B088312031376
:101880003307AD0034080318340AAE000A128A1573
:1018900003210A128A15831203132B08FF007F0805
:1018A00083160313BD009C30FF007F0883120313CF
:1018B000B900831603133C080A168A11EF250A1291
:1018C0008A1583160313B000F630FF007F088312D9
:1018D0000313B900831603133D080A168A11EF2576
:1018E0000A128A158316031330073B07FF007F088F
:1018F000BE005D2D440883120313AB00831603134F
:10190000450883120313AC00AD01AE0100300A128A
:101910008A1592220A128A15831203132E08C00018
:101920002D08BF002C08BE002B08BD003F30BC00B6
:101930004E30BB009730BA008D30B9000A128A11C0
:101940002C200A128A15831203133C08DA003B0884
:10195000D9003A08D8003908D700C230D6005F3025
:10196000D5000030D4000030D3000A128A118D2334
:101970000A128A1583120313560883160313AB0049
:1019800083120313550883160313AA00831203134B
:10199000540883160313A9008312031353088316F4
:1019A0000313A8000A128A156C210A128A158316DD
:1019B00003132808FF007F08BB003B0883120313B2
:1019C00086006430AB000030AC00831603133B0884
:1019D000B000B101300883120313AD008316031366
:1019E000310883120313AE000A128A1503210A126A
:1019F0008A15831203132B08FF007F088316031335
:101A0000BC000A3083120313AB000030AC00831615
:101A100003133C08B000B101300883120313B30074
:101A200083160313310883120313B4009C30B500EE
:101A3000FF30B6000A168A1174260A128A15831618
:101A400003133B08831203133307AD003408031854
:101A5000340AAE000A128A1503210A128A1583126B
:101A600003132B08FF007F0883160313BD009C306F
:101A7000FF007F0883120313B900831603133C0889
:101A80000A168A11EF250A128A1583160313B0006D
:101A9000F630FF007F0883120313B9008316031387
:101AA0003D080A168A11EF250A128A1583160313B8
:101AB00030073B07FF007F08BE0008000A168A11A6
:101AC0000A270A128A150A168A11A5250A128A15EA
:101AD000C73083160313B6006D2DB60B6C2D702D19
:101AE00083120313AE01AE0A01300A168A114E2684
:101AF0000A128A1501300A168A119B260A128A15C3
:101B00008316031344088312031386000A128A15EE
:101B10004E230A128A150A168A11BC250A128A1542
:101B20000A168A1159270A128A150A128A15FE21E5
:101B30000A128A1583120313AE01AE0A02300A1686
:101B40008A114E260A128A15831603133F08303E67
:101B50000A168A11C8250A128A150230FF007F086A
:101B600083120313AE0002300A168A114E260A129F
:101B70008A152E300A168A11C8250A128A150330D2
:101B8000FF007F0883120313AE0002300A168A1189
:101B90004E260A128A15831603134008303E0A1691
:101BA0008A11C8250A128A150430FF007F088312A3
:101BB0000313AE0002300A168A114E260A128A1545
:101BC000831603134108303E0A168A11C8250A12EB
:101BD0008A1545308316031342020318F02DF12DA8
:101BE000542E03308312031388000530FF007F0852
:101BF000AE0002300A168A114E260A128A152030CB
:101C00000A168A11C8250A128A150630FF007F08B5
:101C100083120313AE0002300A168A114E260A12EE
:101C20008A152D300A168A11C8250A128A1507301E
:101C3000FF007F0883120313AE0002300A168A11D8
:101C40004E260A128A1520300A168A11C8250A1251
:101C50008A150830FF007F0883120313AE0002309C
:101C60000A168A114E260A128A15831603133D0896
:101C7000303E0A168A11C8250A128A150930FF005B
:101C80007F0883120313AE0002300A168A114E2613
:101C90000A128A15831603133E08303E0A168A116B
:101CA000C8250A128A15B92E05308312031388003D
:101CB0000530FF007F08AE0002300A168A114E265A
:101CC0000A128A1520300A168A11C8250A128A15A6
:101CD0000630FF007F0883120313AE0002300A169D
:101CE0008A114E260A128A1520300A168A11C82532
:101CF0000A128A150730FF007F0883120313AE0013
:101D000002300A168A114E260A128A158316031308
:101D10003C08303E0A168A11C8250A128A15083076
:101D2000FF007F0883120313AE0002300A168A11E7
:101D30004E260A128A15831603133D08303E0A16F2
:101D40008A11C8250A128A150930FF007F088312FC
:101D50000313AE0002300A168A114E260A128A15A3
:101D6000831603133E08303E0A168A11C8250A124C
:101D70008A150A30FF007F0883120313AE00023079
:101D80000A168A114E260A128A1520300A168A115E
:101D9000C8250A128A150B30FF007F08831203132F
:101DA000AE0002300A168A114E260A128A156430D5
:101DB00083120313AB000030AC00831603134308F7
:101DC000B600B701360883120313AD008316031360
:101DD000370883120313AE000A128A1503210A1270
:101DE0008A15831203132B08303E0A168A11C82560
:101DF0000A128A150C30FF007F0883120313AE000D
:101E000002300A168A114E260A128A15643083128D
:101E10000313AB000030AC00831603134308B60075
:101E2000B701360883120313AD0083160313370876
:101E300083120313AE000A128A1503210A128A15AF
:101E4000831203132C08B4002B08B3009C30B50098
:101E5000FF30B6000A168A1174260A128A158316F4
:101E60000313430883120313330783160313B900C4
:101E70008312031334080318340A83160313BA00B9
:101E80000A3083120313AB000030AC008316031337
:101E90003A0883120313AE00831603133908831222
:101EA0000313AD000A128A1503210A128A15831240
:101EB00003132B08303E0A168A11C8250A128A1508
:101EC0000D30FF007F0883120313AE0002300A16A4
:101ED0008A114E260A128A159C3083120313B5000C
:101EE000FF30B600831603134308B600B701360867
:101EF00083120313AD0083160313370883120313F1
:101F0000AE006430AB000030AC000A128A15032129
:101F10000A128A15831203132C08B4002B08B3008D
:101F20000A168A1174260A128A15831603134308A7
:101F300083120313330783160313B90083120313A9
:101F400034080318340A83160313BA009C30FF00C8
:101F50007F0883120313B900831603134308B600E6
:101F6000B701360883120313AD0083160313370835
:101F700083120313AE006430AB000030AC000A12D1
:101F80008A1503210A128A15831203132B080A16D5
:101F90008A11EF250A128A1583160313B800F6304A
:101FA000FF007F0883120313B900831603133A0856
:101FB00083120313AE00831603133908831203132D
:101FC000AD000A30AB000030AC000A128A150321C4
:101FD0000A128A15831203132B080A168A11EF2599
:101FE0000A128A158316031338074307303E0A1670
:101FF0008A11C8250A128A15802D0A128A11122800
:1020000010308A000408840A8207003450344F34A8
:102010005434313420344C344D343334353420345A
:0A20200043344F344E34543400347E
:102B3E0083120313AB002B088500080001300A1224
:102B4E008A1500200A168A11080083160313141C16
:102B5E00B12DB22DAC2D08000A168A11AC250A161D
:102B6E008A1183120313130808000A308312031309
:102B7E006406031DC32DC42DC72D831603130C1617
:102B8E00080083120313AC0009142C080A168A11CC
:102B9E009F250A168A11831203130915D62DD72DD8
:102BAE008312031309110800831603131813181246
:102BBE0018158316031787111930831603139900FE
:102BCE009A019816831203139817181318160800F3
:102BDE0083120313BB00BA013B1CF62DF72DFB2D00
:102BEE003908FF007F08BA070310B90D0310BB0C9C
:102BFE003B08031D032E042EF32D3A0808000B1D6F
:102C0E00092E0A2E112EEC3081000130FF007F08B4
:102C1E00E4070B110C1E142E152E1D2E0A128A11EE
:102C2E0097260A168A11831603130C1283122A088A
:102C3E00FF0029088A0028088400270E8300FE0E54
:102C4E007E0E0900FC01FD01781C2E2E2F2E352E36
:102C5E007A08FC070318FD0A7B08FD0701300310F4
:102C6E00FA0DFB0DFF3E031D362E01300310F90C3D
:102C7E00F80CFF3E031D3D2E78087904031D482EE7
:102C8E00492E2B2E7D08F9007C08F80008008312CF
:102C9E000313AF002F03031D552E562E622E2E0842
:102CAE007F3EFF007F08B00030080A128A15002010
:102CBE000A168A11732E02302F06031D672E682EF8
:102CCE00732E2E08BF3EFF007F08B00030080A1298
:102CDE008A1500200A168A11080083120313B70101
:102CEE00B801331C7B2E7C2E822E3508B7070318B5
:102CFE00B80A3608B80701300310B50DB60DFF3E01
:102D0E00031D832E01300310B40CB30CFF3E031DC4
:102D1E008A2E33083404031D952E962E782E3808ED
:102D2E00B4003708B300080083120313AF00AD01DF
:102D3E00AE01B62E2D082F0784000A168A11002028
:102D4E000A168A110A168A11C8250A168A11013026
:102D5E0083120313AD070318AE0A0030AE072D0819
:102D6E002F0784000A168A1100200A168A11003ACB
:102D7E00031DC22EC32EA12E080083120313BD0104
:102D8E00BE0139083A040319CD2ECE2E052FBF01F0
:102D9E00BF0ADC2E01300310B90DBA0DFF3E031D24
:102DAE00D22E0130FF007F08BF07BA1FDF2EE02EA4
:102DBE00D12E01300310BD0DBE0DFF3E031DE12EC1
:102DCE003A083C02031DED2E39083B02031CF02E7F
:102DDE00F12EF82E3908BB023A08031CBC03BC02C4
:102DEE003D1401300310BA0CB90CFF3E031DF92E31
:102DFE000130BF02031D042F052FE02E3E08BA003E
:102E0E003D08B90008000A168A11DB250A168A1138
:102E1E0006300A168A11A9270A168A11D730831688
:102E2E00031381008316031788018901831203138C
:102E3E008701880183160313880183120313860109
:102E4E0083160313890183120313890185018316E7
:102E5E0003138501860183120313071487140715C4
:102E6E000A128A1542200A168A11831603130716B0
:102E7E00871107108710071183120313AB01AC01E2
:102E8E00AD0120300A128A11E0270A168A118B171B
:102E9E000B178B160B11831603130C1683120313C9
:102EAE000C1208003330831203136402031C602FCC
:102EBE00612FA82FE401071587140714952F07100B
:102ECE0093010A168A11B3250A168A11FF007F088C
:102EDE0083120313E3000130FF007F088312E20721
:102EEE00A82F871093010A168A11B3250A168A1184
:102EFE00FF007F0883160313C300722F071193017F
:102F0E000A168A11B3250A168A11FF007F08831646
:102F1E000313C20083120313E201A82F6208AB0051
:102F2E00AC012C08003A03199D2FA82F2B08003A4C
:102F3E000319662F013A0319782F033A0319852FC7
:102F4E00A82F080083120313AD00DD2F8316031381
:102F5E000F138F120F12FF2F831603130F138F12DF
:102F6E000F16FF2F831603130F138F160F12FF2F3B
:102F7E00831603130F138F160F16FF2F83160313CB
:102F8E000F178F120F12FF2F831603130F178F12A7
:102F9E000F16FF2F831603130F178F160F12FF2F07
:102FAE00831603130F178F160F16FF2F2D08AB0066
:102FBE00AC012C08003A0319E52FFF2F2B08003A1D
:102FCE000319AD2F013A0319B32F033A0319B92F81
:102FDE00013A0319BF2F073A0319C52F013A0319F6
:102FEE00CB2F033A0319D12F013A0319D72FFF2FF5
:022FFE000800C9
:04400E00D420FF3F7C
:00000001FF
