:020000040000FA
:060000000A128A11122809
:10000800FE00030EF9000408FA000A08FB00831238
:1000180003137F08FC000A128A11632B0A128A1143
:100028001528FD018313203084003B300A128A1101
:10003800C5240A128A1183010A128A11A92CF30015
:10004800831603139F019828831203139F121F120C
:100058009F111F11E228831203139F121F129F1171
:100068001F15E228831203139F121F129F151F11D9
:10007800E228831203139F121F129F151F15E228EF
:10008800831203139F121F169F111F11E228831258
:1000980003139F121F169F111F15E22883120313C3
:1000A8009F121F169F151F11E228831203139F1218
:1000B8001F169F151F15E228831203139F161F1280
:1000C8009F111F11E228831203139F161F129F11FD
:1000D8001F15E228831203139F161F129F151F1165
:1000E800E228831203139F161F129F151F15E2287B
:1000F800831203139F161F169F111F11E2288312E4
:1001080003139F161F169F111F15E228831203134E
:100118009F161F169F151F11E228831203139F169F
:100128001F169F151F15E2287308F100F2017208C7
:10013800003A0319A028E2287108003A0319282870
:10014800013A03192F28033A03193628013A0319EB
:100158003D28073A03194428013A03194B28033A62
:1001680003195228013A031959280F3A031960282C
:10017800013A03196728033A03196E28013A03194B
:100188007528073A03197C28013A03198328033A8A
:1001980003198A28013A03199128E22883129F1328
:1001A8001F13F82883129F131F17F82883129F170D
:1001B8001F13F82883129F171F17F8287008F100DB
:1001C800F2017208003A0319EA28F8287108003A7F
:1001D8000319D228013A0319D628033A0319DA2851
:1001E800013A0319DE28F82883121F14DB30F100C6
:1001F800FD28F10BFC2800290129831203139F1401
:100208000800F400A7293030FF0070088400831725
:10021800711C83137F088000E1293130FF007008CA
:1002280084008317711C83137F088000E129323012
:10023800FF00700884008317711C83137F088000F7
:10024800E1293330FF00700884008317711C831381
:100258007F088000E1293430FF007008840083178C
:10026800711C83137F088000E1293530FF00700876
:1002780084008317711C83137F088000E1293630BE
:10028800FF00700884008317711C83137F088000A7
:10029800E1293730FF00700884008317711C83132D
:1002A8007F088000E1293830FF0070088400831738
:1002B800711C83137F088000E1293930FF00700822
:1002C80084008317711C83137F088000E129413063
:1002D800FF00700884008317711C83137F08800057
:1002E800E1294230FF00700884008317711C8313D2
:1002F8007F088000E1294330FF00700884008317DD
:10030800711C83137F088000E1294430FF007008C6
:1003180084008317711C83137F088000E12945300E
:10032800FF00700884008317711C83137F08800006
:10033800E1294630FF00700884008317711C83137D
:100348007F088000E1297408F200F3017308003A7D
:100358000319AF2907297208003A03190729013A36
:1003680003191129033A03191B29013A03192529ED
:10037800073A03192F29013A03193929033A0319AE
:100388004329013A03194D290F3A03195729013A0C
:1003980003196129033A03196B29013A03197529CD
:1003A800073A03197F29013A03198929033A0319DE
:1003B8009329013A03199D29072908008312031379
:1003C800BE00831603139F01392A9F121F129F1123
:1003D8001F11812A9F121F129F111F15812A9F1218
:1003E8001F129F151F11812A9F121F129F151F157B
:1003F800812A9F121F169F111F11812A9F121F16F3
:100408009F111F15812A9F121F169F151F11812AE0
:100418009F121F169F151F15812A9F161F129F11C5
:100428001F11812A9F161F129F111F15812A9F16BF
:100438001F129F151F11812A9F161F129F151F1526
:10044800812A9F161F169F111F11812A9F161F169A
:100458009F111F15812A9F161F169F151F11812A8C
:100468009F161F169F151F15812A831203133E0816
:10047800BC00BD013D08003A0319432A812A3C0803
:10048800003A0319E929013A0319EE29033A031935
:10049800F329013A0319F829073A0319FD29013A02
:1004A8000319022A033A0319072A013A03190C2AE5
:1004B8000F3A0319112A013A0319162A033A0319A4
:1004C8001B2A013A0319202A073A0319252A013A57
:1004D80003192A2A033A03192F2A013A0319342A3D
:1004E800812A9F131F13972A9F131F17972A9F1755
:1004F8001F13972A9F171F17972A3B08BC00BD0197
:100508003D08003A0319892A972A3C08003A03193A
:10051800752A013A0319782A033A03197B2A013A02
:1005280003197E2A972A1F14DB3083120313BC0099
:100538009D2ABC0B9C2AA02A831203139F1408002F
:10054800322B1930F0000030F1007D08F50004303E
:100558000310F50CFF3E031DAC2A75080F390A126B
:100568008A1105210A128A110130FF007F088312BF
:100578000313B207622B1930F0000030F1007D0838
:100588000F390A128A1105210A128A11B82A2C3049
:100598009900B82A1930F0000030F1003908F50048
:1005A80004300310F50CFF3E031DD52A75080F39DA
:1005B8000A128A1105210A128A11B82A1930F00084
:1005C8000030F10039080F390A128A1105210A1280
:1005D8008A11B82A1930F0000030F1003808F50007
:1005E80004300310F50CFF3E031DF52A75080F397A
:1005F8000A128A1105210A128A11B82A1930F00044
:100608000030F10038080F390A128A1105210A1240
:100618008A11B82A1930F0000030F1003708F500C7
:1006280004300310F50CFF3E031D152B75080F3918
:100638000A128A1105210A128A11B82A1930F00003
:100648000030F10037080F390A128A1105210A1201
:100658008A11B82A0A309900B201622B8312031357
:100668003208F500F6017608003A03193C2B622B94
:100678007508003A0319A52A013A0319BF2A033A53
:100688000319CB2A013A0319CE2A073A0319E22A99
:10069800013A0319CB2A033A0319EE2A013A03193E
:1006A800022B0F3A0319CB2A013A03190E2B033AEE
:1006B8000319222B013A03192E2B622B08000B1D5C
:1006C800662B672B6E2BEC3081000130FF007F0812
:1006D800A7070B110C1F712B722BD52BBC2B0130CC
:1006E800FF007F08BA071E08FF007F08FD000230E0
:1006F800FF007F08F00001300A128A1123200A1235
:100708008A11D22B0130FF007F08BA071E08FF00AC
:100718007F08B9000230FF007F08F00002300A129B
:100728008A1123200A128A11D22B0130FF007F0878
:10073800BA071E08FF007F08B8000230FF007F08D4
:10074800F00003300A128A1123200A128A11D22BD0
:10075800BA011E08FF007F08B7000230FF007F08BB
:10076800F00000300A128A1123200A128A11D22BB3
:100778003A08F700F8017808003A0319C42BD22B7D
:100788007708003A0319732B013A0319862B033AA9
:100798000319992B013A0319AC2BD22B831203139B
:1007A8000C130C1ED82BD92BE12B0A128A11A42268
:1007B8000A128A11831603130C127C088312FF0095
:1007C8007B088A007A088400790E8300FE0E7E0E6C
:1007D800090083120313BD00212C831603130F1382
:1007E8008F120F12432C831603130F138F120F1639
:1007F800432C831603130F138F160F12432C8316E3
:1008080003130F138F160F16432C831603130F179A
:100818008F120F12432C831603130F178F120F1604
:10082800432C831603130F178F160F12432C8316AE
:1008380003130F178F160F16432C3D08BB00BC017E
:100848003C08003A0319292C432C3B08003A0319A9
:10085800F12B013A0319F72B033A0319FD2B013A3F
:100868000319032C073A0319092C013A03190F2C11
:10087800033A0319152C013A03191B2C432C0800C1
:100888000A128A1195240A128A1106300A128A114C
:10089800ED230A128A110230FF007F088312031326
:1008A800BB0000300A128A11E2210A128A11D730DD
:1008B800831603138100831603178801890108141E
:1008C800881408158815831203138701803083164E
:1008D8000313870083120313880183160313880107
:1008E80083120313860183160313890183120313EA
:1008F8008901850183160313850186010514851472
:10090800051585158B170B178B160C1783120313F8
:100918000C130B11831603130C16831203130C12FA
:1009280008008316031318131812181583160317D3
:10093800871119308316031399009A0198168312A8
:10094800031398171813181608000A128A1144245A
:100958000A128A110A128A11B7240A128A11AE2CB5
:100968000A128A1112280B30831203132702031C60
:10097800BE2CBF2CC42CA7019F14831603130C167E
:10098800080064008001840A040603190034040680
:02099800C62C6B
:04400E00D420FF3F7C
:00000001FF
