:020000040000FA
:060000000A128A11122809
:10000800FE00030EF9000408FA000A08FB00831238
:1000180003137F08FC000A128A11592A0A128A114E
:100028001528FD018313363084004B300A128A11DB
:1000380095240A128A1183010A128A11B229F4003E
:10004800C5283030FF00700884008317711C8313A3
:100058007F088000FF283130FF0070088400831774
:10006800711C83137F088000FF283230FF0070085E
:1000780084008317711C83137F088000FF283330A6
:10008800FF00700884008317711C83137F088000A9
:10009800FF283430FF00700884008317711C831315
:1000A8007F088000FF283530FF0070088400831720
:1000B800711C83137F088000FF283630FF0070080A
:1000C80084008317711C83137F088000FF28373052
:1000D800FF00700884008317711C83137F08800059
:1000E800FF283830FF00700884008317711C8313C1
:1000F8007F088000FF283930FF00700884008317CC
:10010800711C83137F088000FF284130FF007008AE
:1001180084008317711C83137F088000FF284230F6
:10012800FF00700884008317711C83137F08800008
:10013800FF284330FF00700884008317711C831365
:100148007F088000FF284430FF0070088400831770
:10015800711C83137F088000FF284530FF0070085A
:1001680084008317711C83137F088000FF284630A2
:10017800FF00700884008317711C83137F088000B8
:10018800FF287408F200F3017308003A0319CD2818
:1001980025287208003A03192528013A03192F283F
:1001A800033A03193928013A03194328073A03196E
:1001B8004D28013A03195728033A03196128013ACF
:1001C80003196B280F3A03197528013A03197F2878
:1001D800033A03198928013A03199328073A03199E
:1001E8009D28013A0319A728033A0319B128013AAF
:1001F8000319BB28252808008D2905151930F0009A
:100208000030F1004108F6004008F5000430031002
:10021800F60CF50CFF3E031D0B2975080F390A1261
:100228008A1123200A128A11013083120313B60798
:100238000318B70A0030B707B12905151930F000BF
:100248000030F10040080F390A128A1123200A12DF
:100258008A11182905153A3099000130B607031894
:10026800B70A0030B707B12905151930F00000307A
:10027800F1004308F6004208F50004300310F60CBC
:10028800F50CFF3E031D422975080F390A128A1121
:1002980023200A128A11182905151930F000003098
:1002A800F10042080F390A128A1123200A128A1112
:1002B800182905152F2905151930F0000030F1000F
:1002C8004508F6004408F50004300310F60CF50C58
:1002D800FF3E031D692975080F390A128A11232068
:1002E8000A128A11182905151930F0000030F1009A
:1002F80044080F390A128A1123200A128A11182970
:1003080005110A309900B601B701C6010B118B120D
:10031800B129831203133708003A03199429B12924
:100328003608003A03190129013A03192129033A29
:1003380003192E29013A03193829073A03195029B4
:10034800013A03195D29033A03195F29013A031990
:1003580077290F3A03198429B12908000A128A114A
:1003680093230A128A110A128A1165240A128A1121
:100378000A128A1183240A128A11D03083120313B5
:10038800A0000030A1000A128A1170240A128A11F2
:10039800003083120313A000A1000A128A117024EE
:1003A8000A128A110A128A118C240A128A11D1306F
:1003B80083120313A0000030A1000A128A117024CE
:1003C8000A128A11013083120313A0000030A10021
:1003D8000A128A1112240A128A118312031321089D
:1003E800C5002008C4000130A0000030A1000A1296
:1003F8008A1112240A128A11831203132108C300D6
:100408002008C2000130A0000030A1000A128A11A1
:1004180012240A128A11831203132108C10020082A
:10042800C0000130A0000030A1000A128A11122475
:100438000A128A11831203132108BF002008BE0084
:100448000130A0000030A1000A128A1112240A12F9
:100458008A11831203132108BD002008BC00013053
:10046800A0000030A1000A128A1112240A128A116F
:10047800831203132108BB002008BA000030A00033
:10048800A1000A128A1112240A128A118312031374
:100498002108B9002008B8000A128A117A240A1221
:1004A8008A11B7290A128A1112280B1D5C2A5D2AA3
:1004B800642A0B11EC3081000130FF007F08FD0732
:1004C8000C1E672A682A702A0A128A1100210A1249
:1004D8008A11831603130C1283128C1E742A752A30
:1004E800C92A8C12902A1A08FF007F08CA00013016
:1004F800FF007F08C807A62A1A08FF007F08C9005E
:100508007B2A1A08FF007F08C6007B2A1A08FF000A
:100518007F08C700C801A62A4808F700F80178082C
:10052800003A0319982AA62A7708003A0319772A65
:10053800013A0319802A033A0319852A013A031953
:100548008A2AA62A0A304706031DAB2AAC2AC52ADE
:100558004603031DB02AB12AB22A8B1635304A0643
:10056800031DB72AB82ABA2A0514BB2A0510353044
:100578004906031DC02AC12AC32A8514C92A851021
:10058800C92ACA01C901C701C6017C08FF007B0846
:100598008A007A088400790E8300FE0E7E0E090018
:1005A800003083120313AC000030AB000030AA0007
:1005B8000030A90023082204210420040319E52A95
:1005C800E62A332BAD01AD0AF62A0130A800031044
:1005D800A00DA10DA20DA30DA80BEB2A0130FF0061
:1005E8007F08AD07A31FF92AFA2AE92A0130A800D3
:1005F8000310A90DAA0DAB0DAC0DA80BFC2A2308FE
:100608002702031D112B22082602031D112B210886
:100618002502031D112B20082402031C142B152B63
:10062800242B2008A4022108031C210FA50222085C
:10063800031C220FA6022308031C230FA702291458
:1006480001300310A30CA20CA10CA00CFF3E031D4B
:10065800252B0130AD02031D322B332BFA2A2C082F
:10066800A3002B08A2002A08A1002908A00008005E
:1006780083120313A200702B831603130F138F1218
:100688000F12922B831603130F138F120F16922B30
:10069800831603130F138F160F12922B831603134F
:1006A8000F138F160F16922B831603130F178F1223
:1006B8000F12922B831603130F178F120F16922BFC
:1006C800831603130F178F160F12922B831603131B
:1006D8000F178F160F16922B2208A000A1012108D0
:1006E800003A0319782B922B2008003A0319402B63
:1006F800013A0319462B033A03194C2B013A031903
:10070800522B073A0319582B013A03195E2B033A67
:100718000319642B013A03196A2B922B08000A1259
:100728008A1144240A128A1106300A128A113C23BB
:100738000A128A11D7308316031381008316031710
:100748008801890183120313870188018316031323
:100758008801831203138601831603138901831208
:1007680003138901850183160313850186018B17FD
:100778000B178B160B110C16831203130C1283160E
:1007880003138C16831203138C120030B10001304E
:10079800B0008630AF00A030AE000A128A11D7230D
:1007A8000A128A1108002830831203139400831652
:1007B800031391011113831203132E08B2002F089B
:1007C800B3003008B4003108B50002300310B20D90
:1007D800B30DB40DB50DFF3E031DEA2B3508A3007C
:1007E8003408A2003308A1003208A0000030A70096
:1007F8003D30A6000930A5000030A4000A128A1175
:10080800D4220A128A11831203132008FF3E83168A
:100818000313930094018715071608000A128A111A
:1008280058240A128A118316031391150A128A1181
:1008380058240A128A11831203131308A200A30171
:100848002208A4002308A5000A128A1158240A12B3
:100858008A118312031320032104031D342C352C21
:10086800392C8316031391123C2C8316031391160B
:100878001116831203132508A1002408A0000800FC
:1008880083160313181318121815831603178711E4
:1008980019308316031399009A01981683120313CB
:1008A80098171813181608008316031314195D2CCB
:1008B8005E2C582C11081F39031D632C642C582CEE
:1008C80008000B307D02031C6A2C6B2C6F2CFD0179
:1008D800831603130C1608000A128A1158240A12E8
:1008E8008A11831203132008930008000A128A1140
:1008F80058240A128A1183160313111508000A12C4
:100908008A1158240A128A11831603131114080035
:100918000A128A1158240A128A1183160313911491
:10092800080064008001840A0406031900340406E0
:02093800962CFB
:04400E00D420FF3F7C
:00000001FF
