:020000040000FA
:060000000A128A1110280B
:10000800FE00030EF0000A08F100831203137F08B4
:10001800F2000A128A1199290A128A111328F70183
:10002800F80183010A128A11D029F60083160313F6
:100038009F018E28831203139F121F129F111F11F5
:10004800D828831203139F121F129F111F15D82837
:10005800831203139F121F129F151F11D828831292
:1000680003139F121F129F151F15D82883120313FD
:100078009F121F169F111F11D828831203139F1256
:100088001F169F111F15D828831203139F121F16BE
:100098009F151F11D828831203139F121F169F152F
:1000A8001F15D828831203139F161F129F111F11A3
:1000B800D828831203139F161F129F111F15D828C3
:1000C800831203139F161F129F151F11D82883121E
:1000D80003139F161F129F151F15D8288312031389
:1000E8009F161F169F111F11D828831203139F16DE
:1000F8001F169F111F15D828831203139F161F164A
:100108009F151F11D828831203139F161F169F15BA
:100118001F15D8287608F400F5017508003A031968
:100128009628D8287408003A03191E28013A03199A
:100138002528033A03192C28013A03193328073ACA
:1001480003193A28013A03194128033A03194828A0
:10015800013A03194F280F3A03195628013A03198F
:100168005D28033A03196428013A03196B28073AF2
:1001780003197228013A03197928033A03198028C8
:10018800013A03198728D82883129F131F13EE28D2
:1001980083129F131F17EE2883129F171F13EE2831
:1001A80083129F171F17EE287308F400F5017508CE
:1001B800003A0319E028EE287408003A0319C82801
:1001C800013A0319CC28033A0319D028013A031934
:1001D800D428EE2883121F14DB30F400F328F40B24
:1001E800F228F628F728831203139F140800F50055
:1001F8002D29831603130F138F120F124F298316FD
:1002080003130F138F120F164F29831603130F139F
:100218008F160F124F29831603130F138F160F16FD
:100228004F29831603130F178F120F124F298316A6
:1002380003130F178F120F164F29831603130F1767
:100248008F160F124F29831603130F178F160F16C9
:100258004F297508F300F4017408003A0319352989
:100268004F297308003A0319FD28013A0319032995
:10027800033A03190929013A03190F29073A0319FF
:100288001529013A03191B29033A03192129013AAF
:10029800031927294F29080006300A128A11FB2062
:1002A8000A128A110230FF007F08F30000300A1298
:1002B8008A1119200A128A115730831603138100F4
:1002C8008316031788010814890183120313870111
:1002D80083160313870183120313880183160313FC
:1002E800880186018312031386018316031389018B
:1002F80083120313890185018316031305148712DA
:100308008516F301F401F50124300A128A11BA2185
:100318000A128A118B170B178B16831603130C17E7
:100328008C15831203138C1108000B1D9C299D2921
:10033800A429EC3081000130FF007F08F7070B117A
:100348000C1FA729A829AD291E08FF007F08F8005F
:100358000C138C15780893008C117208FF00710833
:100368008A00700E8300FE0E7E0E0900F6008316CA
:1003780003138712761DC129C229C629750894005E
:100388008715CA29730875049400871176087404C0
:1003980083120313940008000A128A1150210A12CA
:1003A8008A110A128A11F3210A128A110A128A1171
:1003B800E3210A128A11D5290A128A111028193044
:1003C80078020318E829E929EE290130831203137A
:1003D8008900F229023083120313890008000B30C8
:1003E8007702031CF829F929FD29F7018312031361
:0403F8009F14080046
:04400E00D420FF3F7C
:00000001FF
