:020000040000FA
:060000000A128A1110280B
:10000800FE00030EF7000A08F800831203137F08A6
:10001800F9000A128A1182290A128A111328F0019A
:10002800F101F201F301F401F501F60183010A126D
:100038008A11C12983120313A200831603139F0197
:1000480075289F121F129F111F11BD289F121F1282
:100058009F111F15BD289F121F129F151F11BD2824
:100068009F121F129F151F15BD289F121F169F1143
:100078001F11BD289F121F169F111F15BD289F1203
:100088001F169F151F11BD289F121F169F151F159C
:10009800BD289F161F129F111F11BD289F161F12E2
:1000A8009F111F15BD289F161F129F151F11BD28D0
:1000B8009F161F129F151F15BD289F161F169F11EB
:1000C8001F11BD289F161F169F111F15BD289F16AB
:1000D8001F169F151F11BD289F161F169F151F1548
:1000E800BD28831203132208A000A1012108003AA9
:1000F80003197F28BD282008003A03192528013A4A
:1001080003192A28033A03192F28013A0319342816
:10011800073A03193928013A03193E28033A031903
:100128004328013A031948280F3A03194D28013A80
:1001380003195228033A03195728013A03195C286E
:10014800073A03196128013A03196628033A031983
:100158006B28013A03197028BD289F131F13D32851
:100168009F131F17D3289F171F13D3289F171F17D5
:10017800D3287A08A000A1012108003A0319C5284C
:10018800D3282008003A0319B128013A0319B428E2
:10019800033A0319B728013A0319BA28D3281F14B8
:1001A800DB3083120313A000D928A00BD828DC2841
:1001B800831203139F140800FA00122983160313ED
:1001C8000F138F120F123629831603130F138F1272
:1001D8000F163629831603130F138F160F1236299D
:1001E800831603130F138F160F163629831603135E
:1001F8000F178F120F123629831603130F178F123A
:100208000F163629831603130F178F160F12362968
:10021800831603130F178F160F1636297A088312C1
:100228000313A000A1012108003A03191C2936294B
:100238002008003A0319E228013A0319E828033A8A
:100248000319EE28013A0319F428073A0319FA2882
:10025800013A03190029033A03190629013A031937
:100268000C293629080006300A128A11E0200A12E1
:100278008A110230FF007F08FA0000300A128A1142
:100288001E200A128A115730831603138100831621
:100298000317880108148901831203138701831641
:1002A800031387018312031388018316031388013C
:1002B80086018312031386018316031389018312AF
:1002C8000313890185018316031305148712851604
:1002D80083120313A001A101A20124300A128A117A
:1002E800A3210A128A118B170B178B168316031377
:1002F8000C178C15831203138C1108000B1D85290C
:1003080086298D29EC3081000130FF007F08F50730
:100318000B110C1F9029912996291E08FF007F08B0
:10032800F6000C138C15760893008C117908FF00E1
:1003380078088A00770E8300FE0E7E0E0900FA0008
:100348008316031387127A1DAA29AB29B3298312AE
:10035800031322088316031394008715BB298312FD
:1003680003132008220483160313940087117A08C4
:10037800831203132104940008000A128A113721FA
:100388000A128A110A128A11D3210A128A117608CE
:10039800831203138600C6290A128A1110280B300B
:1003A8007502031CD829D929DD29F5018312031305
:0403B8009F14080086
:04400E00D420FF3F7C
:00000001FF
