:020000040000FA
:060000000A128A11122809
:10000800FE00030EF7000408F8000A08F90083123E
:1000180003137F08FA000A128A115B2B0A128A114D
:100028001528FB01FC01FD018313203084003630C4
:100038000A128A1162260A128A1183010A128A1187
:10004800A62AF300831603139F019A288312031329
:100058009F121F129F111F11E428831203139F126E
:100068001F129F111F15E428831203139F121F12DA
:100078009F151F11E428831203139F121F129F1547
:100088001F15E428831203139F121F169F111F11B7
:10009800E428831203139F121F169F111F15E428CB
:1000A800831203139F121F169F151F11E428831232
:1000B80003139F121F169F151F15E428831203139D
:1000C8009F161F129F111F11E428831203139F16F6
:1000D8001F129F111F15E428831203139F161F1266
:1000E8009F151F11E428831203139F161F129F15D3
:1000F8001F15E428831203139F161F169F111F1143
:10010800E428831203139F161F169F111F15E42856
:10011800831203139F161F169F151F11E4288312BD
:1001280003139F161F169F151F15E4287308F10067
:10013800F2017208003A0319A228E4287108003A6B
:1001480003192A28013A03193128033A03193828D0
:10015800013A03193F28073A03194628013A0319B7
:100168004D28033A03195428013A03195B280F3A1A
:1001780003196228013A03196928033A03197028F8
:10018800013A03197728073A03197E28013A031917
:100198008528033A03198C28013A03199328E4287F
:1001A80083129F131F13FA2883129F131F17FA280D
:1001B80083129F171F13FA2883129F171F17FA28F5
:1001C8007008F100F2017208003A0319EC28FA28C5
:1001D8007108003A0319D428013A0319D828033AB8
:1001E8000319DC28013A0319E028FA2883121F149E
:1001F800DB30F100FF28F10BFE28022903298312C6
:1002080003139F140800F400A9293030FF00700878
:1002180084008317711C83137F088000E329313021
:10022800FF00700884008317711C83137F08800007
:10023800E3293230FF00700884008317711C831390
:100248007F088000E3293330FF007008840083179B
:10025800711C83137F088000E3293430FF00700885
:1002680084008317711C83137F088000E3293530CD
:10027800FF00700884008317711C83137F088000B7
:10028800E3293630FF00700884008317711C83133C
:100298007F088000E3293730FF0070088400831747
:1002A800711C83137F088000E3293830FF00700831
:1002B80084008317711C83137F088000E329393079
:1002C800FF00700884008317711C83137F08800067
:1002D800E3294130FF00700884008317711C8313E1
:1002E8007F088000E3294230FF00700884008317EC
:1002F800711C83137F088000E3294330FF007008D6
:1003080084008317711C83137F088000E32944301D
:10031800FF00700884008317711C83137F08800016
:10032800E3294530FF00700884008317711C83138C
:100338007F088000E3294630FF0070088400831797
:10034800711C83137F088000E3297408F200F3010D
:100358007308003A0319B12909297208003A0319E8
:100368000929013A03191329033A03191D29013AE6
:1003780003192729073A03193129013A03193B2997
:10038800033A03194529013A03194F290F3A03196A
:100398005929013A03196329033A03196D29013AC6
:1003A80003197729073A03198129013A03198B2977
:1003B800033A03199529013A03199F2909290800C5
:1003C80083120313B900831603139F013B2A9F125C
:1003D8001F129F111F11832A9F121F129F111F1591
:1003E800832A9F121F129F151F11832A9F121F1203
:1003F8009F151F15832A9F121F169F111F11832AED
:100408009F121F169F111F15832A9F121F169F15D3
:100418001F11832A9F121F169F151F15832A9F16C7
:100428001F129F111F11832A9F161F129F111F153C
:10043800832A9F161F129F151F11832A9F161F12AA
:100448009F151F15832A9F161F169F111F11832A98
:100458009F161F169F111F15832A9F161F169F157B
:100468001F11832A9F161F169F151F15832A831293
:1004780003133908B700B8013808003A0319452AA8
:10048800832A3708003A0319EB29013A0319F0299E
:10049800033A0319F529013A0319FA29073A031906
:1004A800FF29013A0319042A033A0319092A013AD0
:1004B80003190E2A0F3A0319132A013A0319182AA5
:1004C800033A03191D2A013A0319222A073A031984
:1004D800272A013A03192C2A033A0319312A013A27
:1004E8000319362A832A9F131F13992A9F131F174C
:1004F800992A9F171F13992A9F171F17992A360899
:10050800B700B8013808003A03198B2A992A370826
:10051800003A0319772A013A03197A2A033A031988
:100528007D2A013A0319802A992A1F14DB30831285
:100538000313B7009F2AB70B9E2AA22A831203131C
:100548009F1408000A128A1169240A128A110A12D1
:100558008A1147260A128A110A128A1155260A1286
:100568008A1183120313B901B90A01300A128A11D8
:10057800E1250A128A1115300A128A1191250A12E8
:100588008A1183120313B901B90A02300A128A11B7
:10059800E1250A128A113E300A128A1191250A129F
:1005A8008A11023083120313BE000430BD00B93033
:1005B800BC00BC0BDD2ABD0BDD2ABE0BDD2AE42AFC
:1005C8000A128A1155260A128A1183120313B901D5
:1005D800B90A01300A128A11E1250A128A11253056
:1005E8000A128A1191250A128A1183120313B9017A
:1005F800B90A02300A128A11E1250A128A11323028
:100608000A128A1191250A128A11023083120313E1
:10061800BE000430BD00B930BC00BC0B112BBD0BB3
:10062800112BBE0B112B182B0A128A1155260A12F0
:100638008A1183120313B901B90A01300A128A1107
:10064800E1250A128A1101300A128A1191250A122B
:100658008A110A128A1155260A128A118312031363
:10066800B901B90A02300A128A11E1250A128A115F
:1006780065300A128A1133260A128A1153300A1277
:100688008A1133260A128A11023083120313BE001C
:100698000430BD00B930BC00BC0B502BBD0B502B37
:1006A800BE0B502B572BAB2A0A128A1112280B1D8E
:1006B8005E2B5F2B6D2BEC3081000A128A11BA2554
:1006C8000A128A110130FF007F0883120313A6075C
:1006D8000B110C1F702B712B992B3503031D752BD8
:1006E800762B862BB5011E08FF007F08FD0002301F
:1006F800FF007F08F00001300A128A1125200A1233
:100708008A11962BB501B50A1E08FF007F08FC0068
:100718000230FF007F08F00000300A128A112520FD
:100728000A128A11831203130C138C1E9C2B9D2B07
:10073800A12B1A08FF007F08FB000C1EA42BA52B79
:10074800AD2B0A128A11B9230A128A1183160313D0
:100758000C127A088312FF0079088A00780884004E
:10076800770E8300FE0E7E0E0900F32B1930F00081
:100778000030F10034080A128A1107210A128A117E
:100788000130FF007F0883120313B007112C1930C2
:10079800F0000030F10033080A128A1107210A120A
:1007A8008A11C42B2C309900C42B1930F00000306A
:1007B800F10032080A128A1107210A128A11C42B81
:1007C8001930F0000030F10031080A128A110721AF
:1007D8000A128A11C42B0A309900B001112C831215
:1007E80003133008F500F6017608003A0319FD2BCB
:1007F800112C7508003A0319BA2B013A0319CB2BAF
:10080800033A0319D62B013A0319D92B073A0319CE
:10081800E42B013A0319EF2B112C08008312031360
:10082800B800462C831603130F138F120F12682C6F
:10083800831603130F138F120F16682C83160313D6
:100848000F138F160F12682C831603130F138F16AE
:100858000F16682C831603130F178F120F12682CAC
:10086800831603130F178F120F16682C83160313A2
:100878000F178F160F12682C831603130F178F1676
:100888000F16682C3808B600B7013708003A031964
:100898004E2C682C3608003A0319162C013A031915
:1008A8001C2C033A0319222C013A0319282C073A65
:1008B80003192E2C013A0319342C033A03193A2C44
:1008C800013A0319402C682C08000A128A114D2598
:1008D8000A128A110A128A111F260A128A11063070
:1008E8000A128A1112240A128A110230FF007F08A4
:1008F80083120313B60000300A128A11E4210A1287
:100908008A11D730831603138100831603178801D1
:100918008901081488148312031387018030831611
:1009280003138700831203138801831603138801B6
:100938008312031386018316031389018312031399
:100948008901850183160313850186010514851421
:100958008B170B178B160C17831203130C130B1121
:100968008C12831603130C16831203130C128316AE
:0609780003138C160800B9
:100A000005308A000408840A82070034773477347A
:100A100077342E3465346C34653463347434723412
:100A20006F3453346F346D3465342E3463346F3423
:100A30006D3400344C344334443420344C34693401
:100A400062347234613472347934203466346F34F1
:100A50007234003444346534763465346C346F3425
:100A6000703465346434203442347934003465346D
:100A70006C3465346334743472346F3453346F348B
:100A80006D34653400344D3450344C344134423488
:100A90002034583443343834003400300A128A1178
:100AA0006A260A128A11C73083120313B900582D1F
:100AB000B90B572D5B2D30300A128A1107260A1206
:100AC0008A11843083120313B900B90B652D00001D
:100AD00030300A128A1107260A128A116F2D702DE2
:100AE000712D722D30300A128A1107260A128A11CE
:100AF00038300A128A1107260A128A1108300A129F
:100B00008A1107260A128A1101300A128A11072651
:100B10000A128A1106300A128A1107260A128A114D
:100B2000080083120313BA00B801B901AC2D3808CC
:100B30003A0784000A128A1100250A128A110A1241
:100B40008A1133260A128A11013083120313B8075F
:100B50000318B90A0030B90738083A0784000A12A6
:100B60008A1100250A128A11003A031DB82DB92DE9
:100B7000972D08007D080F39FF007F0883120313AB
:100B8000B3007D08F00004300310F00CFF3E031D9D
:100B9000C42D70080F39FF007F08B4007C080F399E
:100BA000FF007F08B1007C08F00004300310F00C57
:100BB000FF3E031DD62D70080F39FF007F08B200DD
:100BC000080083120313BA003A03031DE82DE92D30
:100BD000F52D39087F3EFF007F08BB003B080A1255
:100BE0008A1107260A128A11062E02303A06031DC0
:100BF000FA2DFB2D062E3908BF3EFF007F08BB00F3
:100C00003B080A128A1107260A128A110800831269
:100C10000313B800091038080A128A116A260A124A
:100C20008A11831203130915843083120313B7004A
:100C3000B70B182E00008312031309110800831646
:100C40000313181318121815831603178711193078
:100C50008316031399009A019816831203139817A9
:100C600018131816080083120313B7000914370865
:100C70000A128A116A260A128A11831203130915AD
:100C8000412E422E831203130911091008000B3064
:100C9000831203132602031C4E2E4F2E542EA60140
:100CA0009F14831603130C16080000300A128A11D1
:100CB00007260A128A1101300A128A1107260A121F
:100CC0008A11080064008001840A040603190034B4
:100CD0000406632E83120313B6003608880008004A
:04400E00D420FF3F7C
:00000001FF
