:020000040000FA
:060000000A128A11122809
:10000800FE00030EF7000408F8000A08F90083123E
:1000180003137F08FA000A128A11CB2D0A128A11DB
:100028001528FB01FC01FD0183133B30840052308D
:100038000A128A15E2260A128A1183010A128A1103
:1000480025280A128A11E3260A128A110A128A1529
:10005800DB260A128A1183120313A301A30A0130B3
:100068000A128A154F270A128A1101300A128A15B4
:100078009C270A128A110A128A11E0210A128A118F
:100088000A128A15EA260A128A11831203133F08F4
:10009800031D4F285028B228BF01BF0AA301A30A95
:1000A80002300A128A154F270A128A118312031383
:1000B8004608303E0A128A15F8260A128A110230BA
:1000C800FF007F0883120313A30002300A128A1567
:1000D8004F270A128A112E300A128A15F8260A1298
:1000E8008A110330FF007F0883120313A300023034
:1000F8000A128A154F270A128A1183120313470816
:10010800303E0A128A15F8260A128A110430FF00B6
:100118007F0883120313A30002300A128A154F279F
:100128000A128A11831203134808303E0A128A15EC
:10013800F8260A128A110530FF007F08831203137C
:10014800A30002300A128A154F270A128A1120309A
:100158000A128A15F8260A128A113F283F03031D3E
:10016800B628B7281D290230FF007F08BF000630D7
:10017800FF007F08A30002300A128A154F270A12CF
:100188008A11831203134308303E0A128A15F8268F
:100198000A128A110730FF007F0883120313A30095
:1001A80002300A128A154F270A128A112E300A12B3
:1001B8008A15F8260A128A110830FF007F08831270
:1001C8000313A30002300A128A154F270A128A1154
:1001D800831203134408303E0A128A15F8260A12BD
:1001E8008A110930FF007F0883120313A30002302D
:1001F8000A128A154F270A128A1183120313450817
:10020800303E0A128A15F8260A128A110A30FF00AF
:100218007F0883120313A30002300A128A154F279E
:100228000A128A1120300A128A15F8260A128A112F
:100238003F28BF010B30FF007F08A30002300A12DD
:100248008A154F270A128A11643083120313A000FB
:100258000030A1004908B700B8013708A2003808E3
:10026800A3000A128A1162250A128A118312031343
:100278002008303E0A128A15F8260A128A110C3014
:10028800FF007F0883120313A30002300A128A15A5
:100298004F270A128A11643083120313A00000301A
:1002A800A1004908B700B8013708A2003808A30020
:1002B8000A128A1162250A128A118312031321086D
:1002C800A9002008A8009C30AA00FF30AB000A1241
:1002D8008A11D8270A128A1183120313490828079A
:1002E800B90029080318290ABA000A30A00000300A
:1002F800A1003A08A3003908A2000A128A1162254F
:100308000A128A11831203132008303E0A128A1532
:10031800F8260A128A110D30FF007F088312031392
:10032800A30002300A128A154F270A128A11643074
:1003380083120313A0000030A1004908B700B801D8
:100348003708A2003808A3000A128A1162250A1287
:100358008A11831203132108A9002008A8009C30E1
:10036800AA00FF30AB000A128A11D8270A128A1194
:100378008312031349082807B90029080318290A12
:10038800BA000A30A0000030A1003A08A3003908DA
:10039800A2000A128A1162250A128A118312031313
:1003A80020084902303E0A128A15F8260A128A11D4
:1003B8003F280A128A111228333083120313A0002F
:1003C8000030A1005108B500B6013508A80036086C
:1003D800A9006430AA000030AB000A128A11D8279D
:1003E8000A128A11831203132908A3002808A200FD
:1003F8000A128A1162250A128A118312031321082C
:10040800BE002008BD003330A0000030A100500815
:10041800B500B6013508A8003608A9006430AA005E
:100428000030AB000A128A11D8270A128A118312E7
:1004380003132908A3002808A2000A128A116225BA
:100448000A128A11831203132108BC002008BB007A
:100458006430AE000030AF003E08B1003D08B00087
:100468000A128A1192270A128A11831203132E087C
:10047800FF007F08C6000A30AE000030AF00460813
:10048800B500B6013508A8003608A9009C30AA00B6
:10049800FF30AB000A128A11D8270A128A11831278
:1004A80003133D082807B0003E0803183E0A290731
:1004B800B1000A128A1192270A128A1183120313B1
:1004C8002E08FF007F08C7009C30FF007F08A000AF
:1004D80046080A128A151F270A128A118312031363
:1004E800B500F630FF007F08A00047080A128A15F9
:1004F8001F270A128A118312031335073D07FF00CD
:100508007F08C8006430AE000030AF003C08B1007E
:100518003B08B0000A128A1192270A128A11831224
:1005280003132E08FF007F08C3000A30AE00003016
:10053800AF004308B500B6013508A8003608A90081
:100548009C30AA00FF30AB000A128A11D8270A1281
:100558008A11831203133B082807B0003C080318CC
:100568003C0A2907B1000A128A1192270A128A1135
:10057800831203132E08FF007F08C4009C30FF007D
:100588007F08A00043080A128A151F270A128A1139
:1005980083120313B500F630FF007F08A00044085B
:1005A8000A128A151F270A128A11831203133507A4
:1005B8003B07FF007F08C5000800F30083160313FC
:1005C8009F01562B831203139F121F129F111F1195
:1005D800A02B831203139F121F129F111F15A02B0C
:1005E800831203139F121F129F151F11A02B831232
:1005F80003139F121F129F151F15A02B831203139D
:100608009F121F169F111F11A02B831203139F12F5
:100618001F169F111F15A02B831203139F121F165D
:100628009F151F11A02B831203139F121F169F15CE
:100638001F15A02B831203139F161F129F111F1142
:10064800A02B831203139F161F129F111F15A02B97
:10065800831203139F161F129F151F11A02B8312BD
:1006680003139F161F129F151F15A02B8312031328
:100678009F161F169F111F11A02B831203139F167D
:100688001F169F111F15A02B831203139F161F16E9
:100698009F151F11A02B831203139F161F169F155A
:1006A8001F15A02B7308F100F2017208003A031914
:1006B8005E2BA02B7108003A0319E62A013A0319A8
:1006C800ED2A033A0319F42A013A0319FB2A073AD7
:1006D8000319022B013A0319092B033A0319102BAA
:1006E800013A0319172B0F3A03191E2B013A031964
:1006F800252B033A03192C2B013A0319332B073AFC
:1007080003193A2B013A0319412B033A0319482BD1
:10071800013A03194F2BA02B83129F131F13B62BDB
:1007280083129F131F17B62B83129F171F13B62B05
:1007380083129F171F17B62B7008F100F201720879
:10074800003A0319A82BB62B7108003A0319902B0D
:10075800013A0319942B033A0319982B013A031908
:100768009C2BB62B83121F14DB30F100BB2BF10B33
:10077800BA2BBE2BBF2B831203139F140800F4005F
:10078800652C3030FF00700884008317711C8313B8
:100798007F0880009F2C3130FF0070088400831789
:1007A800711C83137F0880009F2C3230FF00700873
:1007B80084008317711C83137F0880009F2C3330BB
:1007C800FF00700884008317711C83137F08800062
:1007D8009F2C3430FF00700884008317711C83132A
:1007E8007F0880009F2C3530FF0070088400831735
:1007F800711C83137F0880009F2C3630FF0070081F
:1008080084008317711C83137F0880009F2C373066
:10081800FF00700884008317711C83137F08800011
:100828009F2C3830FF00700884008317711C8313D5
:100838007F0880009F2C3930FF00700884008317E0
:10084800711C83137F0880009F2C4130FF007008C3
:1008580084008317711C83137F0880009F2C42300B
:10086800FF00700884008317711C83137F088000C1
:100878009F2C4330FF00700884008317711C83137A
:100888007F0880009F2C4430FF0070088400831785
:10089800711C83137F0880009F2C4530FF0070086F
:1008A80084008317711C83137F0880009F2C4630B7
:1008B800FF00700884008317711C83137F08800071
:1008C8009F2C7408F200F3017308003A03196D2C89
:1008D800C52B7208003A0319C52B013A0319CF2B0F
:1008E800033A0319D92B013A0319E32B073A0319E1
:1008F800ED2B013A0319F72B033A0319012C013A9E
:1009080003190B2C0F3A0319152C013A03191F2C44
:10091800033A0319292C013A0319332C073A03190E
:100928003D2C013A0319472C033A0319512C013A7B
:1009380003195B2CC52B080083120313A30083162D
:1009480003139F01F72C9F121F129F111F113F2D98
:100958009F121F129F111F153F2D9F121F129F15C7
:100968001F113F2D9F121F129F151F153F2D9F12FC
:100978001F169F111F113F2D9F121F169F111F1524
:100988003F2D9F121F169F151F113F2D9F121F16D7
:100998009F151F153F2D9F161F129F111F113F2DC9
:1009A8009F161F129F111F153F2D9F161F129F156F
:1009B8001F113F2D9F161F129F151F153F2D9F16A4
:1009C8001F169F111F113F2D9F161F169F111F15D0
:1009D8003F2D9F161F169F151F113F2D9F161F167F
:1009E8009F151F153F2D831203132308A100A20191
:1009F8002208003A0319012D3F2D2108003A031956
:100A0800A72C013A0319AC2C033A0319B12C013A6B
:100A18000319B62C073A0319BB2C013A0319C02C49
:100A2800033A0319C52C013A0319CA2C0F3A0319C2
:100A3800CF2C013A0319D42C033A0319D92C013AC3
:100A48000319DE2C073A0319E32C013A0319E82CA1
:100A5800033A0319ED2C013A0319F22C3F2D9F1389
:100A68001F13552D9F131F17552D9F171F13552DF6
:100A78009F171F17552D2008A100A2012208003A30
:100A88000319472D552D2108003A0319332D013A32
:100A98000319362D033A0319392D013A03193C2D50
:100AA800552D1F14DB3083120313A1005B2DA10BFE
:100AB8005A2D5E2D831203139F140800831203130B
:100AC800A501A11F682D692D702DA009A109A00AF3
:100AD8000319A10AA501A50AA31F732D742D7D2D45
:100AE800A209A309A20A0319A30A0130FF007F087B
:100AF800A506A601A701200821040319842D852D28
:100B0800BC2DA401A40A932D01300310A00DA10D42
:100B1800FF3E031D892D0130FF007F08A407A11F98
:100B2800962D972D882D01300310A60DA70DFF3E99
:100B3800031D982D21082302031DA42D200822023D
:100B4800031CA72DA82DAF2D2008A2022108031CE5
:100B5800A303A302261401300310A10CA00CFF3E2E
:100B6800031DB02D0130A402031DBB2DBC2D972DF4
:100B780025080319C02DC12DC62DA609A709A60A47
:100B88000319A70A2708A1002608A00008000B1DC2
:100B9800CE2DCF2DDD2DEC3081000A128A15752758
:100BA8000A128A110130FF007F0883120313C2075B
:100BB8000B110C1FE02DE12D092E7D03031DE52DE2
:100BC800E62DF62DFD011E08FF007F08D10002303A
:100BD800FF007F08F00001300A128A11E1220A1290
:100BE8008A11062EFD01FD0A1E08FF007F08D000AD
:100BF8000230FF007F08F00000300A128A11E1225B
:100C08000A128A11831203130C138C1E0C2E0D2E3C
:100C1800162E1A08FF007F08FB000A128A15C5273E
:100C28000A128A11831203130C1E1B2E1C2E242E4B
:100C38000A128A118A260A128A11831603130C12C1
:100C48007A088312FF0079088A0078088400770EF2
:100C58008300FE0E7E0E0900D53083120313A30015
:100C6800352E362EA30B342E392E3A2E3B2E00303D
:100C78000A128A15D5260A128A1103308312031321
:100C8800A4009730A300A30B472EA40B472E3030A7
:100C98000A128A1536270A128A11A53083120313FD
:100CA800A300A30B552E582E30300A128A1536276A
:100CB8000A128A11043083120313A300A30B622EB5
:100CC800000030300A128A1536270A128A11383085
:100CD8000A128A1536270A128A1110300A128A1542
:100CE80036270A128A1101300A128A1536270A1283
:100CF8008A1106300A128A1536270A128A110C3010
:100D08000A128A1536270A128A110800C42E1930C9
:100D1800F0000030F1007C080A128A11C3230A127D
:100D28008A110130FF007F0883120313CC07E22EDB
:100D38001930F0000030F1004F080A128A11C3235D
:100D48000A128A11952E2C309900952E1930F00030
:100D58000030F1004E080A128A11C3230A128A11C0
:100D6800952E1930F0000030F1004D080A128A1152
:100D7800C3230A128A11952E0A309900CC01E22E5B
:100D8800831203134C08F500F6017608003A03199C
:100D9800CE2EE22E7508003A03198B2E013A03195C
:100DA8009C2E033A0319A72E013A0319AA2E073AD3
:100DB8000319B52E013A0319C02EE22E08000A12B3
:100DC8008A150B270A128A1106300A128A113B2744
:100DD8000A128A110230FF007F0883120313A00051
:100DE80000300A128A11A0240A128A11D7308316F9
:100DF80003138100831603178801890108148814D6
:100E0800831203138701803083160313870083122C
:100E180003138801831603138801831203138601C1
:100E2800831603138901831203138901850183162D
:100E3800031385018601051485140A128A113026C8
:100E48000A128A118B170B178B16831603130C17AC
:100E5800831203130C130B118C12831603130C1635
:100E6800831203130C12831603138C1608008312C3
:100E78000313A2006F2F831603130F138F120F1281
:100E8800912F831603130F138F120F16912F8316AA
:100E980003130F138F160F12912F831603130F13BB
:100EA8008F160F16912F831603130F178F120F1219
:100EB800912F831603130F178F120F16912F831676
:100EC80003130F178F160F12912F831603130F1783
:100ED8008F160F16912F2208A000A1012108003AB1
:100EE8000319772F912F2008003A03193F2F013A51
:100EF8000319452F033A03194B2F013A0319512FB0
:100F0800073A0319572F013A03195D2F033A0319BA
:100F1800632F013A0319692F912F080083120313D5
:100F2800B201B3012E082F0403199B2F9C2FD32F36
:100F3800B401B40AAA2F01300310AE0DAF0DFF3E65
:100F4800031DA02F0130FF007F08B407AF1FAD2F8E
:100F5800AE2F9F2F01300310B20DB30DFF3E031DBE
:100F6800AF2F2F083102031DBB2F2E083002031CA0
:100F7800BE2FBF2FC62F2E08B0022F08031CB103A7
:100F8800B102321401300310AF0CAE0CFF3E031D4A
:100F9800C72F0130B402031DD22FD32FAE2F330831
:100FA800AF003208AE00080083120313AC01AD0194
:100FB800281CDF2FE02FE62F2A08AC070318AD0AFC
:100FC8002B08AD0701300310AA0DAB0DFF3E031D22
:100FD800E72F01300310A90CA80CFF3E031DEE2FCC
:100FE80028082904031DF92FFA2FDC2F2D08A90042
:060FF8002C08A80008000F
:1010000008308A000408840A8207003450344F34C0
:1010100054343134203450344F3454343234203446
:0A10200043344F344E34543400348E
:101DAA0083120313A00020088800080001300A12D9
:101DBA008A1536270A128A15080064008001840AE7
:101DCA000406031900340406E32E0B3083120313AE
:101DDA004202031CF12EF22EF72EC2019F14831623
:101DEA0003130C16080083120313A1000914210817
:101DFA000A128A15D5260A128A158312031309159F
:101E0A00062F072F831203130911080083160313E1
:101E1A001813181218158316031787111930831609
:101E2A00031399009A01981683120313981718132B
:101E3A001816080083120313A200A101221C262FE0
:101E4A00272F2B2F2008FF007F08A1070310A00DC2
:101E5A000310A20C2208031D332F342F232F21082D
:101E6A00080083120313A200091022080A128A1515
:101E7A00D5260A128A15831203130915C73083124D
:101E8A000313A100482FA10B472F4B2F83120313D3
:101E9A000911080083120313A4002403031D562FFB
:101EAA00572F632F23087F3EFF007F08A5002508D0
:101EBA000A128A1536270A128A15742F0230240646
:101ECA00031D682F692F742F2308BF3EFF007F0868
:101EDA00A50025080A128A1536270A128A1508004B
:101EEA008312031351080F39FF007F08CF005108EE
:101EFA00F00004300310F00CFF3E031D7F2F700822
:101F0A000F39FF007F08FC0050080F39FF007F08D7
:101F1A00CD005008F00004300310F00CFF3E031D02
:101F2A00912F70080F39FF007F08CE000800831236
:101F3A000313A400A201A301B72F220824078400D7
:101F4A000A128A1500200A128A150A128A15F82618
:101F5A000A128A15013083120313A2070318A30A6F
:101F6A000030A3072208240784000A128A150020D9
:101F7A000A128A15003A031DC32FC42FA22F080084
:101F8A002B307B06031DCA2FCB2FCF2F83120313AF
:101F9A00C101C10A2B307B060319D42FD52FE12F9B
:101FAA00831203134103031DDB2FDC2FE12FC10131
:101FBA000130FF007F08C9072D307B06031DE62F7D
:101FCA00E72FEB2F83120313C001C00A2D307B06C3
:101FDA000319F02FF12FFB2F831203134003031D64
:101FEA00F72FF82FFB2FC0010130C9028312031308
:061FFA0049088600080002
:04400E00D420FF3F7C
:00000001FF
