:020000040000FA
:060000000A128A1110280B
:10000800FE00030EF7000A08F800831203137F08A6
:10001800F9000A128A11A6290A128A111328F00176
:10002800F101F201F301F401F501F60183010A126D
:100038008A11632A83120313A200831603139F01F4
:1000480075289F121F129F111F11BD289F121F1282
:100058009F111F15BD289F121F129F151F11BD2824
:100068009F121F129F151F15BD289F121F169F1143
:100078001F11BD289F121F169F111F15BD289F1203
:100088001F169F151F11BD289F121F169F151F159C
:10009800BD289F161F129F111F11BD289F161F12E2
:1000A8009F111F15BD289F161F129F151F11BD28D0
:1000B8009F161F129F151F15BD289F161F169F11EB
:1000C8001F11BD289F161F169F111F15BD289F16AB
:1000D8001F169F151F11BD289F161F169F151F1548
:1000E800BD28831203132208A000A1012108003AA9
:1000F80003197F28BD282008003A03192528013A4A
:1001080003192A28033A03192F28013A0319342816
:10011800073A03193928013A03193E28033A031903
:100128004328013A031948280F3A03194D28013A80
:1001380003195228033A03195728013A03195C286E
:10014800073A03196128013A03196628033A031983
:100158006B28013A03197028BD289F131F13D32851
:100168009F131F17D3289F171F13D3289F171F17D5
:10017800D3287A08A000A1012108003A0319C5284C
:10018800D3282008003A0319B128013A0319B428E2
:10019800033A0319B728013A0319BA28D3281F14B8
:1001A800DB3083120313A000D928A00BD828DC2841
:1001B800831203139F140800FA001229C030870025
:1001C8004E29F93087004E29A43087004E29B030D7
:1001D80087004E29993087004E29923087004E2992
:1001E800823087004E29F83087004E2980308700FA
:1001F8004E29903087004E29883087004E29833059
:1002080087004E29C63087004E29A13087004E2925
:10021800863087004E298E3087004E297A0883124F
:100228000313A000A1012108003A03191C294E2933
:100238002008003A0319E228013A0319E528033A8D
:100248000319E828013A0319EB28073A0319EE289D
:10025800013A0319F128033A0319F428013A03195A
:10026800F7280F3A0319FA28013A0319FD28033A27
:1002780003190029013A03190329073A0319062922
:10028800013A03190929033A03190C29013A0319F8
:100298000F294E290800FA008129831603130F132A
:1002A8008F120F12A529831603130F138F120F161F
:1002B800A529831603130F138F160F12A52983166A
:1002C80003130F138F160F16A529831603130F1781
:1002D8008F120F12A529831603130F178F120F16EB
:1002E800A529831603130F178F160F12A529831636
:1002F80003130F178F160F16A5297A0883120313F5
:10030800A000A1012108003A03198B29A52920087A
:10031800003A03195129013A03195729033A0319D5
:100328005D29013A03196329073A03196929013A32
:1003380003196F29033A03197529013A03197B290F
:10034800A52908000B1DA929AA29B629EC30810086
:100358000A128A1192220A128A110130FF007F08BC
:10036800F0070B11831203130C1FBB29BC29C129E9
:100378001E08FF007F08F6000C130B1CC429C529B2
:10038800EC29061BC829C929CB29F201F20A061F44
:10039800CE29CF29D9297203031DD329D429D929D4
:1003A800F2010130FF007F088807861BDC29DD2960
:1003B800DF29F101F10A861FE229E329EB297103FC
:1003C800031DE729E829EB29F101013088020B1008
:1003D8007908FF0078088A00770E8300FE0E7E0EEB
:1003E800090007300A128A114F210A128A110230B5
:1003F800FF007F08FA0000300A128A111E200A1234
:100408008A11573083160313810083160317880156
:1004180008148901831203138701831603138701C4
:1004280083120313880183160313880183120313AD
:100438008601831603138901831203138901850139
:1004480083160313051406178617C03095008B17FB
:100458000B178B168B150C17C030960083120313DD
:100468000C130B100B1108008312031309108910C9
:100478007503031D402A412A4E2A891476080F392C
:10048800FF007F08F30073080A128A11E0200A129D
:100498008A11622A09147608A20004300310A20CFB
:1004A800FF3E031D522A22080F39FF007F08F4007F
:1004B80074080A128A11E0200A128A1108000A1226
:1004C8008A11F5210A128A110A128A1138220A128F
:1004D8008A110A128A117B220A128A110A128A11B7
:1004E80087220A128A11682A0A128A1110287608A5
:1004F8008312031308020318822A832A852A0915FE
:10050800862A091108000B307002031C8C2A8D2AD8
:10051800912AF001831203139F1408007503031D29
:10052800962A972A992AF5019B2AF501F50A0800C7
:04400E00D420FF3F7C
:00000001FF
