:020000040000FA
:060000000A128A11122809
:10000800FE00030EF4000408F5000A08F600831247
:1000180003137F08F7000A128A11C5290A128A11E8
:100028001528F801F901FA01FB01FC01FD01830122
:100038000A128A11842A83120313A3008316031356
:100048009F0176289F121F129F111F11BE289F1211
:100058001F129F111F15BE289F121F129F151F11D7
:10006800BE289F121F129F151F15BE289F121F160C
:100078009F111F11BE289F121F169F111F15BE2802
:100088009F121F169F151F11BE289F121F169F151E
:100098001F15BE289F161F129F111F11BE289F16DD
:1000A8001F129F111F15BE289F161F129F151F1183
:1000B800BE289F161F129F151F15BE289F161F16B4
:1000C8009F111F11BE289F161F169F111F15BE28AE
:1000D8009F161F169F151F11BE289F161F169F15C6
:1000E8001F15BE28831203132308A100A2012208AA
:1000F800003A03198028BE282108003A0319262847
:10010800013A03192B28033A03193028013A031935
:100118003528073A03193A28013A03193F28033AC0
:1001280003194428013A031949280F3A03194E289C
:10013800013A03195328033A03195828013A0319B5
:100148005D28073A03196228013A03196728033A18
:1001580003196C28013A03197128BE289F131F132D
:10016800D4289F131F17D4289F171F13D4289F170D
:100178001F17D4282008A100A2012208003A031959
:10018800C628D4282108003A0319B228013A0319CD
:10019800B528033A0319B828013A0319BB28D4280B
:1001A8001F14DB3083120313A100DA28A10BD9280E
:1001B800DD28831203139F140800F2003329C0308E
:1001C8008312031387006D29F93083120313870004
:1001D8006D29A4308312031387006D29B030831270
:1001E800031387006D2999308312031387006D2943
:1001F80092308312031387006D2982308312031310
:1002080087006D29F8308312031387006D29803029
:100218008312031387006D2990308312031387001C
:100228006D2988308312031387006D298330831268
:10023800031387006D29C6308312031387006D29C5
:10024800A1308312031387006D29863083120313AC
:1002580087006D298E308312031387006D29720879
:10026800F000F1017108003A03193B296D29700863
:10027800003A0319E328013A0319E828033A031955
:10028800ED28013A0319F228073A0319F728013A29
:100298000319FC28033A03190129013A031906290D
:1002A8000F3A03190B29013A03191029033A0319C4
:1002B8001529013A03191A29073A03191F29013A7E
:1002C80003192429033A03192929013A03192E2964
:1002D8006D29080083120313A200A22983160313B1
:1002E8000F138F120F12C429831603130F138F12C3
:1002F8000F16C429831603130F138F160F12C42960
:10030800831603130F138F160F16C42983160313AE
:100318000F178F120F12C429831603130F178F128A
:100328000F16C429831603130F178F160F12C4292B
:10033800831603130F178F160F16C4292208A0005F
:10034800A1012108003A0319AA29C4292008003A62
:1003580003197229013A03197829033A03197E29E6
:10036800013A03198429073A03198A29013A03191A
:100378009029033A03199629013A03199C29C4299B
:1003880008000B1DC829C929D1290B11C8308100C3
:100398000A128A1156220A128A11831203130C1F99
:1003A800D629D729DD291E08FF007F08FD000C1378
:1003B8009F140B1CE029E129082A061BE429E529DA
:1003C800E729F901F90A061FEA29EB29F529790332
:1003D800031DEF29F029F529F9010130FF007F08F5
:1003E8008807861BF829F929FB29F801F80A061F4E
:1003F800FE29FF29072A7803031D032A042A072A4E
:10040800F801013088020B107708FF0076088A008F
:1004180075088400740E8300FE0E7E0E09000730F6
:100428000A128A116E210A128A110230FF007F080F
:1004380083120313A00000300A128A111F200A1227
:100448008A11573083160313810083160317880116
:100458000814890183120313870183160313870184
:10046800831203138801831603138801831203136D
:1004780086018316031389018312031389018501F9
:1004880083160313051406178617C73095008B17B4
:100498000B178B168B150C17831203130C130B10E9
:1004A8000B11080083120313091089107C03031D24
:1004B8005E2A5F2A6D2A8914FC017D080F39FF0026
:1004C8007F08FA007A080A128A11E1200A128A11B2
:1004D800832A0914FC01FC0A7D08F3000430031088
:1004E800F30CFF3E031D732A73080F39FF007F08C2
:1004F800FB007B080A128A11E1200A128A110800FF
:100508000A128A1113220A128A110A128A119222D5
:100518000A128A11892A0A128A1112287D0883125E
:10052800031307020318992A9A2A9C2A89159D2AD7
:04053800891108001D
:04400E00D420FF3F7C
:00000001FF
