:020000040000FA
:060000000A128A1110280B
:10000800FE00030EF0000A08F100831203137F08B4
:10001800F2000A128A11B8280A128A111328F60166
:1000280083010A128A11CC28F5004A288316031383
:100038000F138F120F126C28831603130F138F12CE
:100048000F166C28831603130F138F160F126C28C4
:10005800831603130F138F160F166C2883160313BA
:100068000F178F120F126C28831603130F178F1296
:100078000F166C28831603130F178F160F126C2890
:10008800831603130F178F160F166C287508F300C5
:10009800F4017408003A031952286C287308003ACE
:1000A80003191A28013A03192028033A03192628A4
:1000B800013A03192C28073A03193228013A03197F
:1000C8003828033A03193E28013A031944286C28B2
:1000D80008000A128A11A4200A128A1106300A128C
:1000E8008A1118200A128A11D73083160313810047
:1000F8008312031785018316031788018901831268
:1001080003138701803083160313870083120313B8
:10011800880183160313880183120313860183164B
:1001280003138901831203138901850183160313BD
:1001380085018601051485148B170B178B1608008B
:10014800831603131813181218158316031787112B
:1001580019308316031399009A0198168312031312
:1001680098171813181608000B1DBB28BC28C3289D
:10017800EC3081000130FF007F08F6070B11720890
:10018800FF0071088A00700E8300FE0E7E0E0900C3
:100198000A128A116D200A128A110A128A11DE20A7
:1001A8000A128A113030831203139900D1280A12D7
:1001B8008A1110280B307602031CE328E428E5286E
:0401C800F601080034
:04400E00D420FF3F7C
:00000001FF
