:020000040000FA
:100000000A128A11FC2F00308A000408840A820731
:1000100000347734773477342E3465346C34653477
:100020006334743472346F3453346F346D346534E4
:100030002E3463346F346D3400344C3443344434E0
:1000400020344C346934623472346134723479341B
:10005000203466346F34723400344434653476347A
:1000600065346C346F347034653464342034423415
:100070007934003465346C346534633474347234E8
:100080006F3453346F346D34653400344D34503430
:100090004C344134423420345834433438340034FE
:100C4200F0007008831203138800080000300A12B3
:100C52008A1165260A128A1101300A128A11652642
:100C62000A128A11080001300A128A1165260A1234
:100C72008A1108300A128A1165260A128A1108009E
:100C820001300A128A1165260A128A110C300A12E0
:100C92008A1165260A128A110800F20083120313D0
:100CA200091472080A128A1121260A128A11831261
:100CB200031309151A30F100F10B5D2E00008312A7
:100CC2000313091109100800F3008312031309101A
:100CD20073080A128A1121260A128A118312031337
:100CE20009150B30F2006230F100F10B762EF20B97
:100CF200762E00008312031309110800F500750314
:100D0200031D842E852E912E74087F3EFF007F08DE
:100D1200F60076080A128A1165260A128A11A22E94
:100D220002307506031D962E972EA22E7408BF3E22
:100D3200FF007F08F60076080A128A1165260A1259
:100D42008A110800F500F301F401BA2E7308750741
:100D520084000A128A1103200A128A110A128A11C5
:100D62004E260A128A110130F3070318F40A0030E2
:100D7200F4077308750784000A128A1103200A1205
:100D82008A11003A031DC62EC72EA72E0800003076
:100D92000A128A1121260A128A111A30F500F83035
:100DA200F400F40BD22EF50BD22E000030300A12D2
:100DB2008A1165260A128A110B30F5006230F4009E
:100DC200F40BE12EF50BE12E000030300A128A11ED
:100DD20065260A128A113530F400F40BEE2E3030FB
:100DE2000A128A1165260A128A1138300A128A11E9
:100DF20065260A128A1108300A128A1165260A1219
:100E02008A1101300A128A1165260A128A110630E5
:100E12000A128A1165260A128A1108008316031320
:100E220089018316031788018316031388010A12A6
:100E32008A11C8260A128A110A128A1127260A1250
:100E42008A11F401F40A01300A128A117F260A1269
:100E52008A1115300A128A11A3260A128A11F40184
:100E6200F40A02300A128A117F260A128A113E30CF
:100E72000A128A11A3260A128A111530F9004B3080
:100E8200F800BE30F700F70B442FF80B442FF90B94
:100E9200442F00000A128A1127260A128A11F4012D
:100EA200F40A01300A128A117F260A128A112530A9
:100EB2000A128A11A3260A128A11F401F40A0230D4
:100EC2000A128A117F260A128A1132300A128A11F4
:100ED200A3260A128A111530F9004B30F800BE30F1
:100EE200F700F70B722FF80B722FF90B722F00001D
:100EF2000A128A1127260A128A11F401F40A013011
:100F02000A128A117F260A128A1101300A128A11E4
:100F1200A3260A128A11FA01FB010430F9000C30EF
:100F2200F8003330F700F70B942FF80B942FF90BDE
:100F3200942F9B2F0A128A1134260A128A11013029
:100F4200FA070318FB0A0030FB0700307B020F3060
:100F520003197A02031CAE2FAF2F8E2FFA01FB0169
:100F62000430F9000C30F8003330F700F70BB72FDC
:100F7200F80BB72FF90BB72FBE2F0A128A11412691
:100F82000A128A110130FA070318FB0A0030FB0724
:100F920000307B020F3003197A02031CD12FD22FAB
:100FA200B12F0A128A1127260A128A11F401F40AB1
:100FB20002300A128A117F260A128A1165300A1239
:100FC2008A114E260A128A1153300A128A114E26AB
:100FD2000A128A111530F9004B30F800BE30F700C2
:100FE200F70BF12FF80BF12FF90BF12F00001D2F4A
:0E0FF2000A128A11002883010A128A110F2F99
:04400E00F22FFF3F4F
:00000001FF
